{
  "address": "0xC5073d5eEe8baD2A14aAFB677E44B9177f8dF60a",
  "abi": [
    {
      "inputs": [
        {
          "internalType": "string",
          "name": "_name",
          "type": "string"
        },
        {
          "internalType": "string",
          "name": "_symbol",
          "type": "string"
        },
        {
          "internalType": "address",
          "name": "_vaultMigration",
          "type": "address"
        },
        {
          "internalType": "uint256",
          "name": "_rewardMultipler",
          "type": "uint256"
        },
        {
          "internalType": "contract IERC20",
          "name": "_tokenPiggy",
          "type": "address"
        }
      ],
      "stateMutability": "nonpayable",
      "type": "constructor"
    },
    {
      "anonymous": false,
      "inputs": [
        {
          "indexed": true,
          "internalType": "address",
          "name": "owner",
          "type": "address"
        },
        {
          "indexed": true,
          "internalType": "address",
          "name": "spender",
          "type": "address"
        },
        {
          "indexed": false,
          "internalType": "uint256",
          "name": "value",
          "type": "uint256"
        }
      ],
      "name": "Approval",
      "type": "event"
    },
    {
      "anonymous": false,
      "inputs": [
        {
          "indexed": true,
          "internalType": "address",
          "name": "from",
          "type": "address"
        },
        {
          "indexed": true,
          "internalType": "address",
          "name": "to",
          "type": "address"
        },
        {
          "indexed": false,
          "internalType": "uint256",
          "name": "value",
          "type": "uint256"
        }
      ],
      "name": "Transfer",
      "type": "event"
    },
    {
      "inputs": [
        {
          "internalType": "address",
          "name": "owner",
          "type": "address"
        },
        {
          "internalType": "address",
          "name": "spender",
          "type": "address"
        }
      ],
      "name": "allowance",
      "outputs": [
        {
          "internalType": "uint256",
          "name": "",
          "type": "uint256"
        }
      ],
      "stateMutability": "view",
      "type": "function"
    },
    {
      "inputs": [
        {
          "internalType": "address",
          "name": "spender",
          "type": "address"
        },
        {
          "internalType": "uint256",
          "name": "amount",
          "type": "uint256"
        }
      ],
      "name": "approve",
      "outputs": [
        {
          "internalType": "bool",
          "name": "",
          "type": "bool"
        }
      ],
      "stateMutability": "nonpayable",
      "type": "function"
    },
    {
      "inputs": [
        {
          "internalType": "address",
          "name": "account",
          "type": "address"
        }
      ],
      "name": "balanceOf",
      "outputs": [
        {
          "internalType": "uint256",
          "name": "",
          "type": "uint256"
        }
      ],
      "stateMutability": "view",
      "type": "function"
    },
    {
      "inputs": [
        {
          "internalType": "uint256",
          "name": "_amount",
          "type": "uint256"
        }
      ],
      "name": "claimReward",
      "outputs": [],
      "stateMutability": "nonpayable",
      "type": "function"
    },
    {
      "inputs": [
        {
          "internalType": "address[]",
          "name": "_tos",
          "type": "address[]"
        }
      ],
      "name": "claimRewardOnBehalfOf",
      "outputs": [],
      "stateMutability": "nonpayable",
      "type": "function"
    },
    {
      "inputs": [],
      "name": "decimals",
      "outputs": [
        {
          "internalType": "uint8",
          "name": "",
          "type": "uint8"
        }
      ],
      "stateMutability": "view",
      "type": "function"
    },
    {
      "inputs": [
        {
          "internalType": "address",
          "name": "spender",
          "type": "address"
        },
        {
          "internalType": "uint256",
          "name": "subtractedValue",
          "type": "uint256"
        }
      ],
      "name": "decreaseAllowance",
      "outputs": [
        {
          "internalType": "bool",
          "name": "",
          "type": "bool"
        }
      ],
      "stateMutability": "nonpayable",
      "type": "function"
    },
    {
      "inputs": [],
      "name": "governance",
      "outputs": [
        {
          "internalType": "address",
          "name": "",
          "type": "address"
        }
      ],
      "stateMutability": "view",
      "type": "function"
    },
    {
      "inputs": [
        {
          "internalType": "address",
          "name": "spender",
          "type": "address"
        },
        {
          "internalType": "uint256",
          "name": "addedValue",
          "type": "uint256"
        }
      ],
      "name": "increaseAllowance",
      "outputs": [
        {
          "internalType": "bool",
          "name": "",
          "type": "bool"
        }
      ],
      "stateMutability": "nonpayable",
      "type": "function"
    },
    {
      "inputs": [],
      "name": "name",
      "outputs": [
        {
          "internalType": "string",
          "name": "",
          "type": "string"
        }
      ],
      "stateMutability": "view",
      "type": "function"
    },
    {
      "inputs": [
        {
          "internalType": "address",
          "name": "_account",
          "type": "address"
        },
        {
          "internalType": "uint256",
          "name": "_nums",
          "type": "uint256"
        }
      ],
      "name": "reward",
      "outputs": [],
      "stateMutability": "nonpayable",
      "type": "function"
    },
    {
      "inputs": [],
      "name": "rewardMultipler",
      "outputs": [
        {
          "internalType": "uint256",
          "name": "",
          "type": "uint256"
        }
      ],
      "stateMutability": "view",
      "type": "function"
    },
    {
      "inputs": [
        {
          "internalType": "address",
          "name": "_governance",
          "type": "address"
        }
      ],
      "name": "setGovernance",
      "outputs": [],
      "stateMutability": "nonpayable",
      "type": "function"
    },
    {
      "inputs": [
        {
          "internalType": "uint256",
          "name": "_rewardMultipler",
          "type": "uint256"
        }
      ],
      "name": "setRewardMultipler",
      "outputs": [],
      "stateMutability": "nonpayable",
      "type": "function"
    },
    {
      "inputs": [
        {
          "internalType": "address",
          "name": "_vaultMigration",
          "type": "address"
        }
      ],
      "name": "setVaultMigration",
      "outputs": [],
      "stateMutability": "nonpayable",
      "type": "function"
    },
    {
      "inputs": [],
      "name": "symbol",
      "outputs": [
        {
          "internalType": "string",
          "name": "",
          "type": "string"
        }
      ],
      "stateMutability": "view",
      "type": "function"
    },
    {
      "inputs": [],
      "name": "tokenPiggy",
      "outputs": [
        {
          "internalType": "contract IERC20",
          "name": "",
          "type": "address"
        }
      ],
      "stateMutability": "view",
      "type": "function"
    },
    {
      "inputs": [],
      "name": "totalSupply",
      "outputs": [
        {
          "internalType": "uint256",
          "name": "",
          "type": "uint256"
        }
      ],
      "stateMutability": "view",
      "type": "function"
    },
    {
      "inputs": [
        {
          "internalType": "address",
          "name": "recipient",
          "type": "address"
        },
        {
          "internalType": "uint256",
          "name": "amount",
          "type": "uint256"
        }
      ],
      "name": "transfer",
      "outputs": [
        {
          "internalType": "bool",
          "name": "",
          "type": "bool"
        }
      ],
      "stateMutability": "nonpayable",
      "type": "function"
    },
    {
      "inputs": [
        {
          "internalType": "address",
          "name": "sender",
          "type": "address"
        },
        {
          "internalType": "address",
          "name": "recipient",
          "type": "address"
        },
        {
          "internalType": "uint256",
          "name": "amount",
          "type": "uint256"
        }
      ],
      "name": "transferFrom",
      "outputs": [
        {
          "internalType": "bool",
          "name": "",
          "type": "bool"
        }
      ],
      "stateMutability": "nonpayable",
      "type": "function"
    },
    {
      "inputs": [],
      "name": "vaultMigration",
      "outputs": [
        {
          "internalType": "address",
          "name": "",
          "type": "address"
        }
      ],
      "stateMutability": "view",
      "type": "function"
    }
  ],
  "transactionHash": "0xd10dbbf4d487f0c9b62792bbb1c05907f11defae57723b7f10442584ac293007",
  "args": [
    "Piggy Migration Reward",
    "mrPiggy",
    "0x034563d799c80345ff9Dee0AdFa7134471Db37d1",
    100,
    "0x1bEaC6DF550be0ad146DD99b4726c6bec9C5c6a5"
  ],
  "solcInputHash": "80c7e14f357d1d8ae5026e8d55eb8d70",
  "bytecode": "0x60a06040523480156200001157600080fd5b50604051620033da380380620033da8339818101604052810190620000379190620003b8565b84848160039080519060200190620000519291906200020e565b5080600490805190602001906200006a9291906200020e565b50505033600560006101000a81548173ffffffffffffffffffffffffffffffffffffffff021916908373ffffffffffffffffffffffffffffffffffffffff16021790555082600660006101000a81548173ffffffffffffffffffffffffffffffffffffffff021916908373ffffffffffffffffffffffffffffffffffffffff160217905550816007819055508073ffffffffffffffffffffffffffffffffffffffff1660808173ffffffffffffffffffffffffffffffffffffffff1660601b815250508073ffffffffffffffffffffffffffffffffffffffff1663095ea7b3600560009054906101000a900473ffffffffffffffffffffffffffffffffffffffff167fffffffffffffffffffffffffffffffffffffffffffffffffffffffffffffffff6040518363ffffffff1660e01b8152600401620001ac9291906200048e565b602060405180830381600087803b158015620001c757600080fd5b505af1158015620001dc573d6000803e3d6000fd5b505050506040513d601f19601f820116820180604052508101906200020291906200038c565b505050505050620006f1565b8280546200021c90620005ae565b90600052602060002090601f0160209004810192826200024057600085556200028c565b82601f106200025b57805160ff19168380011785556200028c565b828001600101855582156200028c579182015b828111156200028b5782518255916020019190600101906200026e565b5b5090506200029b91906200029f565b5090565b5b80821115620002ba576000816000905550600101620002a0565b5090565b6000620002d5620002cf84620004e4565b620004bb565b905082815260208101848484011115620002ee57600080fd5b620002fb84828562000578565b509392505050565b600081519050620003148162000689565b92915050565b6000815190506200032b81620006a3565b92915050565b6000815190506200034281620006bd565b92915050565b600082601f8301126200035a57600080fd5b81516200036c848260208601620002be565b91505092915050565b6000815190506200038681620006d7565b92915050565b6000602082840312156200039f57600080fd5b6000620003af848285016200031a565b91505092915050565b600080600080600060a08688031215620003d157600080fd5b600086015167ffffffffffffffff811115620003ec57600080fd5b620003fa8882890162000348565b955050602086015167ffffffffffffffff8111156200041857600080fd5b620004268882890162000348565b9450506040620004398882890162000303565b93505060606200044c8882890162000375565b92505060806200045f8882890162000331565b9150509295509295909350565b62000477816200051a565b82525050565b62000488816200056e565b82525050565b6000604082019050620004a560008301856200046c565b620004b460208301846200047d565b9392505050565b6000620004c7620004da565b9050620004d58282620005e4565b919050565b6000604051905090565b600067ffffffffffffffff82111562000502576200050162000649565b5b6200050d8262000678565b9050602081019050919050565b600062000527826200054e565b9050919050565b60008115159050919050565b600062000547826200051a565b9050919050565b600073ffffffffffffffffffffffffffffffffffffffff82169050919050565b6000819050919050565b60005b83811015620005985780820151818401526020810190506200057b565b83811115620005a8576000848401525b50505050565b60006002820490506001821680620005c757607f821691505b60208210811415620005de57620005dd6200061a565b5b50919050565b620005ef8262000678565b810181811067ffffffffffffffff8211171562000611576200061062000649565b5b80604052505050565b7f4e487b7100000000000000000000000000000000000000000000000000000000600052602260045260246000fd5b7f4e487b7100000000000000000000000000000000000000000000000000000000600052604160045260246000fd5b6000601f19601f8301169050919050565b62000694816200051a565b8114620006a057600080fd5b50565b620006ae816200052e565b8114620006ba57600080fd5b50565b620006c8816200053a565b8114620006d457600080fd5b50565b620006e2816200056e565b8114620006ee57600080fd5b50565b60805160601c612ca7620007336000396000818161059301528181610a8a01528181610d7c01528181610e8e0152818161133d01526114360152612ca76000f3fe608060405234801561001057600080fd5b50600436106101375760003560e01c80635aa6e675116100b85780639926c2901161007c5780639926c29014610340578063a457c2d71461035c578063a9059cbb1461038c578063ab033ea9146103bc578063ae169a50146103d8578063dd62ed3e146103f457610137565b80635aa6e6751461029a57806370a08231146102b85780638e2612a1146102e857806390b5dec11461030457806395d89b411461032257610137565b806323b872dd116100ff57806323b872dd146101e25780632bcf84fd14610212578063313ce5671461022e578063395093511461024c5780634d4709631461027c57610137565b806306fdde031461013c578063095ea7b31461015a57806318160ddd1461018a5780631d3237e3146101a857806321670f22146101c6575b600080fd5b610144610424565b604051610151919061220d565b60405180910390f35b610174600480360381019061016f9190611d67565b6104b6565b60405161018191906121d7565b60405180910390f35b6101926104d4565b60405161019f919061242f565b60405180910390f35b6101b06104de565b6040516101bd919061242f565b60405180910390f35b6101e060048036038101906101db9190611d67565b6104e4565b005b6101fc60048036038101906101f79190611d18565b61064f565b60405161020991906121d7565b60405180910390f35b61022c60048036038101906102279190611cb3565b610750565b005b610236610824565b604051610243919061244a565b60405180910390f35b61026660048036038101906102619190611d67565b61082d565b60405161027391906121d7565b60405180910390f35b6102846108d9565b604051610291919061216a565b60405180910390f35b6102a26108ff565b6040516102af919061216a565b60405180910390f35b6102d260048036038101906102cd9190611cb3565b610925565b6040516102df919061242f565b60405180910390f35b61030260048036038101906102fd9190611da3565b61096d565b005b61030c610a88565b60405161031991906121f2565b60405180910390f35b61032a610aac565b604051610337919061220d565b60405180910390f35b61035a60048036038101906103559190611e0d565b610b3e565b005b61037660048036038101906103719190611d67565b610bd8565b60405161038391906121d7565b60405180910390f35b6103a660048036038101906103a19190611d67565b610ccc565b6040516103b391906121d7565b60405180910390f35b6103d660048036038101906103d19190611cb3565b610cea565b005b6103f260048036038101906103ed9190611e0d565b610f7f565b005b61040e60048036038101906104099190611cdc565b610f8c565b60405161041b919061242f565b60405180910390f35b6060600380546104339061268a565b80601f016020809104026020016040519081016040528092919081815260200182805461045f9061268a565b80156104ac5780601f10610481576101008083540402835291602001916104ac565b820191906000526020600020905b81548152906001019060200180831161048f57829003601f168201915b5050505050905090565b60006104ca6104c3611013565b848461101b565b6001905092915050565b6000600254905090565b60075481565b600660009054906101000a900473ffffffffffffffffffffffffffffffffffffffff1673ffffffffffffffffffffffffffffffffffffffff163373ffffffffffffffffffffffffffffffffffffffff1614610574576040517f08c379a000000000000000000000000000000000000000000000000000000000815260040161056b906123af565b60405180910390fd5b600060075482610584919061253e565b905061059083826111e6565b807f000000000000000000000000000000000000000000000000000000000000000073ffffffffffffffffffffffffffffffffffffffff166370a08231306040518263ffffffff1660e01b81526004016105ea919061216a565b60206040518083038186803b15801561060257600080fd5b505afa158015610616573d6000803e3d6000fd5b505050506040513d601f19601f8201168201806040525081019061063a9190611e36565b1061064a57610649838261133a565b5b505050565b600061065c84848461147e565b6000600160008673ffffffffffffffffffffffffffffffffffffffff1673ffffffffffffffffffffffffffffffffffffffff16815260200190815260200160002060006106a7611013565b73ffffffffffffffffffffffffffffffffffffffff1673ffffffffffffffffffffffffffffffffffffffff16815260200190815260200160002054905082811015610727576040517f08c379a000000000000000000000000000000000000000000000000000000000815260040161071e9061230f565b60405180910390fd5b61074485610733611013565b858461073f9190612598565b61101b565b60019150509392505050565b600560009054906101000a900473ffffffffffffffffffffffffffffffffffffffff1673ffffffffffffffffffffffffffffffffffffffff163373ffffffffffffffffffffffffffffffffffffffff16146107e0576040517f08c379a00000000000000000000000000000000000000000000000000000000081526004016107d79061228f565b60405180910390fd5b80600660006101000a81548173ffffffffffffffffffffffffffffffffffffffff021916908373ffffffffffffffffffffffffffffffffffffffff16021790555050565b60006012905090565b60006108cf61083a611013565b848460016000610848611013565b73ffffffffffffffffffffffffffffffffffffffff1673ffffffffffffffffffffffffffffffffffffffff16815260200190815260200160002060008873ffffffffffffffffffffffffffffffffffffffff1673ffffffffffffffffffffffffffffffffffffffff168152602001908152602001600020546108ca91906124e8565b61101b565b6001905092915050565b600660009054906101000a900473ffffffffffffffffffffffffffffffffffffffff1681565b600560009054906101000a900473ffffffffffffffffffffffffffffffffffffffff1681565b60008060008373ffffffffffffffffffffffffffffffffffffffff1673ffffffffffffffffffffffffffffffffffffffff168152602001908152602001600020549050919050565b600560009054906101000a900473ffffffffffffffffffffffffffffffffffffffff1673ffffffffffffffffffffffffffffffffffffffff163373ffffffffffffffffffffffffffffffffffffffff16146109fd576040517f08c379a00000000000000000000000000000000000000000000000000000000081526004016109f49061228f565b60405180910390fd5b60005b8151811015610a84576000828281518110610a44577f4e487b7100000000000000000000000000000000000000000000000000000000600052603260045260246000fd5b602002602001015190506000610a5982610925565b90506000811115610a6f57610a6e828261133a565b5b50508080610a7c906126ed565b915050610a00565b5050565b7f000000000000000000000000000000000000000000000000000000000000000081565b606060048054610abb9061268a565b80601f0160208091040260200160405190810160405280929190818152602001828054610ae79061268a565b8015610b345780601f10610b0957610100808354040283529160200191610b34565b820191906000526020600020905b815481529060010190602001808311610b1757829003601f168201915b5050505050905090565b600560009054906101000a900473ffffffffffffffffffffffffffffffffffffffff1673ffffffffffffffffffffffffffffffffffffffff163373ffffffffffffffffffffffffffffffffffffffff1614610bce576040517f08c379a0000000000000000000000000000000000000000000000000000000008152600401610bc59061228f565b60405180910390fd5b8060078190555050565b60008060016000610be7611013565b73ffffffffffffffffffffffffffffffffffffffff1673ffffffffffffffffffffffffffffffffffffffff16815260200190815260200160002060008573ffffffffffffffffffffffffffffffffffffffff1673ffffffffffffffffffffffffffffffffffffffff16815260200190815260200160002054905082811015610ca4576040517f08c379a0000000000000000000000000000000000000000000000000000000008152600401610c9b906123ef565b60405180910390fd5b610cc1610caf611013565b858584610cbc9190612598565b61101b565b600191505092915050565b6000610ce0610cd9611013565b848461147e565b6001905092915050565b600560009054906101000a900473ffffffffffffffffffffffffffffffffffffffff1673ffffffffffffffffffffffffffffffffffffffff163373ffffffffffffffffffffffffffffffffffffffff1614610d7a576040517f08c379a0000000000000000000000000000000000000000000000000000000008152600401610d719061228f565b60405180910390fd5b7f000000000000000000000000000000000000000000000000000000000000000073ffffffffffffffffffffffffffffffffffffffff1663095ea7b3600560009054906101000a900473ffffffffffffffffffffffffffffffffffffffff1660006040518363ffffffff1660e01b8152600401610df8929190612185565b602060405180830381600087803b158015610e1257600080fd5b505af1158015610e26573d6000803e3d6000fd5b505050506040513d601f19601f82011682018060405250810190610e4a9190611de4565b5080600560006101000a81548173ffffffffffffffffffffffffffffffffffffffff021916908373ffffffffffffffffffffffffffffffffffffffff1602179055507f000000000000000000000000000000000000000000000000000000000000000073ffffffffffffffffffffffffffffffffffffffff1663095ea7b3600560009054906101000a900473ffffffffffffffffffffffffffffffffffffffff167fffffffffffffffffffffffffffffffffffffffffffffffffffffffffffffffff6040518363ffffffff1660e01b8152600401610f299291906121ae565b602060405180830381600087803b158015610f4357600080fd5b505af1158015610f57573d6000803e3d6000fd5b505050506040513d601f19601f82011682018060405250810190610f7b9190611de4565b5050565b610f89338261133a565b50565b6000600160008473ffffffffffffffffffffffffffffffffffffffff1673ffffffffffffffffffffffffffffffffffffffff16815260200190815260200160002060008373ffffffffffffffffffffffffffffffffffffffff1673ffffffffffffffffffffffffffffffffffffffff16815260200190815260200160002054905092915050565b600033905090565b600073ffffffffffffffffffffffffffffffffffffffff168373ffffffffffffffffffffffffffffffffffffffff16141561108b576040517f08c379a00000000000000000000000000000000000000000000000000000000081526004016110829061236f565b60405180910390fd5b600073ffffffffffffffffffffffffffffffffffffffff168273ffffffffffffffffffffffffffffffffffffffff1614156110fb576040517f08c379a00000000000000000000000000000000000000000000000000000000081526004016110f2906122af565b60405180910390fd5b80600160008573ffffffffffffffffffffffffffffffffffffffff1673ffffffffffffffffffffffffffffffffffffffff16815260200190815260200160002060008473ffffffffffffffffffffffffffffffffffffffff1673ffffffffffffffffffffffffffffffffffffffff168152602001908152602001600020819055508173ffffffffffffffffffffffffffffffffffffffff168373ffffffffffffffffffffffffffffffffffffffff167f8c5be1e5ebec7d5bd14f71427d1e84f3dd0314c0f7b2291e5b200ac8c7c3b925836040516111d9919061242f565b60405180910390a3505050565b600073ffffffffffffffffffffffffffffffffffffffff168273ffffffffffffffffffffffffffffffffffffffff161415611256576040517f08c379a000000000000000000000000000000000000000000000000000000000815260040161124d9061240f565b60405180910390fd5b611262600083836116fd565b806002600082825461127491906124e8565b92505081905550806000808473ffffffffffffffffffffffffffffffffffffffff1673ffffffffffffffffffffffffffffffffffffffff16815260200190815260200160002060008282546112c991906124e8565b925050819055508173ffffffffffffffffffffffffffffffffffffffff16600073ffffffffffffffffffffffffffffffffffffffff167fddf252ad1be2c89b69c2b068fc378daa952ba7f163c4a11628f55a4df523b3ef8360405161132e919061242f565b60405180910390a35050565b807f000000000000000000000000000000000000000000000000000000000000000073ffffffffffffffffffffffffffffffffffffffff166370a08231306040518263ffffffff1660e01b8152600401611394919061216a565b60206040518083038186803b1580156113ac57600080fd5b505afa1580156113c0573d6000803e3d6000fd5b505050506040513d601f19601f820116820180604052508101906113e49190611e36565b1015611425576040517f08c379a000000000000000000000000000000000000000000000000000000000815260040161141c9061222f565b60405180910390fd5b61142f8282611702565b61147a82827f000000000000000000000000000000000000000000000000000000000000000073ffffffffffffffffffffffffffffffffffffffff166118d69092919063ffffffff16565b5050565b600073ffffffffffffffffffffffffffffffffffffffff168373ffffffffffffffffffffffffffffffffffffffff1614156114ee576040517f08c379a00000000000000000000000000000000000000000000000000000000081526004016114e59061234f565b60405180910390fd5b600073ffffffffffffffffffffffffffffffffffffffff168273ffffffffffffffffffffffffffffffffffffffff16141561155e576040517f08c379a00000000000000000000000000000000000000000000000000000000081526004016115559061224f565b60405180910390fd5b6115698383836116fd565b60008060008573ffffffffffffffffffffffffffffffffffffffff1673ffffffffffffffffffffffffffffffffffffffff168152602001908152602001600020549050818110156115ef576040517f08c379a00000000000000000000000000000000000000000000000000000000081526004016115e6906122cf565b60405180910390fd5b81816115fb9190612598565b6000808673ffffffffffffffffffffffffffffffffffffffff1673ffffffffffffffffffffffffffffffffffffffff16815260200190815260200160002081905550816000808573ffffffffffffffffffffffffffffffffffffffff1673ffffffffffffffffffffffffffffffffffffffff168152602001908152602001600020600082825461168b91906124e8565b925050819055508273ffffffffffffffffffffffffffffffffffffffff168473ffffffffffffffffffffffffffffffffffffffff167fddf252ad1be2c89b69c2b068fc378daa952ba7f163c4a11628f55a4df523b3ef846040516116ef919061242f565b60405180910390a350505050565b505050565b600073ffffffffffffffffffffffffffffffffffffffff168273ffffffffffffffffffffffffffffffffffffffff161415611772576040517f08c379a00000000000000000000000000000000000000000000000000000000081526004016117699061232f565b60405180910390fd5b61177e826000836116fd565b60008060008473ffffffffffffffffffffffffffffffffffffffff1673ffffffffffffffffffffffffffffffffffffffff16815260200190815260200160002054905081811015611804576040517f08c379a00000000000000000000000000000000000000000000000000000000081526004016117fb9061226f565b60405180910390fd5b81816118109190612598565b6000808573ffffffffffffffffffffffffffffffffffffffff1673ffffffffffffffffffffffffffffffffffffffff1681526020019081526020016000208190555081600260008282546118649190612598565b92505081905550600073ffffffffffffffffffffffffffffffffffffffff168373ffffffffffffffffffffffffffffffffffffffff167fddf252ad1be2c89b69c2b068fc378daa952ba7f163c4a11628f55a4df523b3ef846040516118c9919061242f565b60405180910390a3505050565b6119578363a9059cbb60e01b84846040516024016118f59291906121ae565b604051602081830303815290604052907bffffffffffffffffffffffffffffffffffffffffffffffffffffffff19166020820180517bffffffffffffffffffffffffffffffffffffffffffffffffffffffff838183161783525050505061195c565b505050565b60006119be826040518060400160405280602081526020017f5361666545524332303a206c6f772d6c6576656c2063616c6c206661696c65648152508573ffffffffffffffffffffffffffffffffffffffff16611a239092919063ffffffff16565b9050600081511115611a1e57808060200190518101906119de9190611de4565b611a1d576040517f08c379a0000000000000000000000000000000000000000000000000000000008152600401611a14906123cf565b60405180910390fd5b5b505050565b6060611a328484600085611a3b565b90509392505050565b606082471015611a80576040517f08c379a0000000000000000000000000000000000000000000000000000000008152600401611a77906122ef565b60405180910390fd5b611a8985611b4f565b611ac8576040517f08c379a0000000000000000000000000000000000000000000000000000000008152600401611abf9061238f565b60405180910390fd5b6000808673ffffffffffffffffffffffffffffffffffffffff168587604051611af19190612153565b60006040518083038185875af1925050503d8060008114611b2e576040519150601f19603f3d011682016040523d82523d6000602084013e611b33565b606091505b5091509150611b43828286611b62565b92505050949350505050565b600080823b905060008111915050919050565b60608315611b7257829050611bc2565b600083511115611b855782518084602001fd5b816040517f08c379a0000000000000000000000000000000000000000000000000000000008152600401611bb9919061220d565b60405180910390fd5b9392505050565b6000611bdc611bd78461248a565b612465565b90508083825260208201905082856020860282011115611bfb57600080fd5b60005b85811015611c2b5781611c118882611c35565b845260208401935060208301925050600181019050611bfe565b5050509392505050565b600081359050611c4481612c2c565b92915050565b600082601f830112611c5b57600080fd5b8135611c6b848260208601611bc9565b91505092915050565b600081519050611c8381612c43565b92915050565b600081359050611c9881612c5a565b92915050565b600081519050611cad81612c5a565b92915050565b600060208284031215611cc557600080fd5b6000611cd384828501611c35565b91505092915050565b60008060408385031215611cef57600080fd5b6000611cfd85828601611c35565b9250506020611d0e85828601611c35565b9150509250929050565b600080600060608486031215611d2d57600080fd5b6000611d3b86828701611c35565b9350506020611d4c86828701611c35565b9250506040611d5d86828701611c89565b9150509250925092565b60008060408385031215611d7a57600080fd5b6000611d8885828601611c35565b9250506020611d9985828601611c89565b9150509250929050565b600060208284031215611db557600080fd5b600082013567ffffffffffffffff811115611dcf57600080fd5b611ddb84828501611c4a565b91505092915050565b600060208284031215611df657600080fd5b6000611e0484828501611c74565b91505092915050565b600060208284031215611e1f57600080fd5b6000611e2d84828501611c89565b91505092915050565b600060208284031215611e4857600080fd5b6000611e5684828501611c9e565b91505092915050565b611e68816125cc565b82525050565b611e77816125de565b82525050565b6000611e88826124b6565b611e9281856124cc565b9350611ea2818560208601612657565b80840191505092915050565b611eb781612621565b82525050565b611ec681612645565b82525050565b6000611ed7826124c1565b611ee181856124d7565b9350611ef1818560208601612657565b611efa816127c3565b840191505092915050565b6000611f126024836124d7565b9150611f1d826127d4565b604082019050919050565b6000611f356023836124d7565b9150611f4082612823565b604082019050919050565b6000611f586022836124d7565b9150611f6382612872565b604082019050919050565b6000611f7b600b836124d7565b9150611f86826128c1565b602082019050919050565b6000611f9e6022836124d7565b9150611fa9826128ea565b604082019050919050565b6000611fc16026836124d7565b9150611fcc82612939565b604082019050919050565b6000611fe46026836124d7565b9150611fef82612988565b604082019050919050565b60006120076028836124d7565b9150612012826129d7565b604082019050919050565b600061202a6021836124d7565b915061203582612a26565b604082019050919050565b600061204d6025836124d7565b915061205882612a75565b604082019050919050565b60006120706024836124d7565b915061207b82612ac4565b604082019050919050565b6000612093601d836124d7565b915061209e82612b13565b602082019050919050565b60006120b6600f836124d7565b91506120c182612b3c565b602082019050919050565b60006120d9602a836124d7565b91506120e482612b65565b604082019050919050565b60006120fc6025836124d7565b915061210782612bb4565b604082019050919050565b600061211f601f836124d7565b915061212a82612c03565b602082019050919050565b61213e8161260a565b82525050565b61214d81612614565b82525050565b600061215f8284611e7d565b915081905092915050565b600060208201905061217f6000830184611e5f565b92915050565b600060408201905061219a6000830185611e5f565b6121a76020830184611ebd565b9392505050565b60006040820190506121c36000830185611e5f565b6121d06020830184612135565b9392505050565b60006020820190506121ec6000830184611e6e565b92915050565b60006020820190506122076000830184611eae565b92915050565b600060208201905081810360008301526122278184611ecc565b905092915050565b6000602082019050818103600083015261224881611f05565b9050919050565b6000602082019050818103600083015261226881611f28565b9050919050565b6000602082019050818103600083015261228881611f4b565b9050919050565b600060208201905081810360008301526122a881611f6e565b9050919050565b600060208201905081810360008301526122c881611f91565b9050919050565b600060208201905081810360008301526122e881611fb4565b9050919050565b6000602082019050818103600083015261230881611fd7565b9050919050565b6000602082019050818103600083015261232881611ffa565b9050919050565b600060208201905081810360008301526123488161201d565b9050919050565b6000602082019050818103600083015261236881612040565b9050919050565b6000602082019050818103600083015261238881612063565b9050919050565b600060208201905081810360008301526123a881612086565b9050919050565b600060208201905081810360008301526123c8816120a9565b9050919050565b600060208201905081810360008301526123e8816120cc565b9050919050565b60006020820190508181036000830152612408816120ef565b9050919050565b6000602082019050818103600083015261242881612112565b9050919050565b60006020820190506124446000830184612135565b92915050565b600060208201905061245f6000830184612144565b92915050565b600061246f612480565b905061247b82826126bc565b919050565b6000604051905090565b600067ffffffffffffffff8211156124a5576124a4612794565b5b602082029050602081019050919050565b600081519050919050565b600081519050919050565b600081905092915050565b600082825260208201905092915050565b60006124f38261260a565b91506124fe8361260a565b9250827fffffffffffffffffffffffffffffffffffffffffffffffffffffffffffffffff0382111561253357612532612736565b5b828201905092915050565b60006125498261260a565b91506125548361260a565b9250817fffffffffffffffffffffffffffffffffffffffffffffffffffffffffffffffff048311821515161561258d5761258c612736565b5b828202905092915050565b60006125a38261260a565b91506125ae8361260a565b9250828210156125c1576125c0612736565b5b828203905092915050565b60006125d7826125ea565b9050919050565b60008115159050919050565b600073ffffffffffffffffffffffffffffffffffffffff82169050919050565b6000819050919050565b600060ff82169050919050565b600061262c82612633565b9050919050565b600061263e826125ea565b9050919050565b60006126508261260a565b9050919050565b60005b8381101561267557808201518184015260208101905061265a565b83811115612684576000848401525b50505050565b600060028204905060018216806126a257607f821691505b602082108114156126b6576126b5612765565b5b50919050565b6126c5826127c3565b810181811067ffffffffffffffff821117156126e4576126e3612794565b5b80604052505050565b60006126f88261260a565b91507fffffffffffffffffffffffffffffffffffffffffffffffffffffffffffffffff82141561272b5761272a612736565b5b600182019050919050565b7f4e487b7100000000000000000000000000000000000000000000000000000000600052601160045260246000fd5b7f4e487b7100000000000000000000000000000000000000000000000000000000600052602260045260246000fd5b7f4e487b7100000000000000000000000000000000000000000000000000000000600052604160045260246000fd5b6000601f19601f8301169050919050565b7f776974686472617720616d6f756e74206578636565647320706f6f6c2062616c60008201527f616e636500000000000000000000000000000000000000000000000000000000602082015250565b7f45524332303a207472616e7366657220746f20746865207a65726f206164647260008201527f6573730000000000000000000000000000000000000000000000000000000000602082015250565b7f45524332303a206275726e20616d6f756e7420657863656564732062616c616e60008201527f6365000000000000000000000000000000000000000000000000000000000000602082015250565b7f21676f7665726e616e6365000000000000000000000000000000000000000000600082015250565b7f45524332303a20617070726f766520746f20746865207a65726f20616464726560008201527f7373000000000000000000000000000000000000000000000000000000000000602082015250565b7f45524332303a207472616e7366657220616d6f756e742065786365656473206260008201527f616c616e63650000000000000000000000000000000000000000000000000000602082015250565b7f416464726573733a20696e73756666696369656e742062616c616e636520666f60008201527f722063616c6c0000000000000000000000000000000000000000000000000000602082015250565b7f45524332303a207472616e7366657220616d6f756e742065786365656473206160008201527f6c6c6f77616e6365000000000000000000000000000000000000000000000000602082015250565b7f45524332303a206275726e2066726f6d20746865207a65726f2061646472657360008201527f7300000000000000000000000000000000000000000000000000000000000000602082015250565b7f45524332303a207472616e736665722066726f6d20746865207a65726f20616460008201527f6472657373000000000000000000000000000000000000000000000000000000602082015250565b7f45524332303a20617070726f76652066726f6d20746865207a65726f2061646460008201527f7265737300000000000000000000000000000000000000000000000000000000602082015250565b7f416464726573733a2063616c6c20746f206e6f6e2d636f6e7472616374000000600082015250565b7f217661756c744d6967726174696f6e0000000000000000000000000000000000600082015250565b7f5361666545524332303a204552433230206f7065726174696f6e20646964206e60008201527f6f74207375636365656400000000000000000000000000000000000000000000602082015250565b7f45524332303a2064656372656173656420616c6c6f77616e63652062656c6f7760008201527f207a65726f000000000000000000000000000000000000000000000000000000602082015250565b7f45524332303a206d696e7420746f20746865207a65726f206164647265737300600082015250565b612c35816125cc565b8114612c4057600080fd5b50565b612c4c816125de565b8114612c5757600080fd5b50565b612c638161260a565b8114612c6e57600080fd5b5056fea2646970667358221220c3f611e41275dc9d7a753068eb9df131f4bcd3188977eff9c4f52d1747452d9e64736f6c63430008040033",
  "devdoc": {
    "kind": "dev",
    "methods": {
      "allowance(address,address)": {
        "details": "See {IERC20-allowance}."
      },
      "approve(address,uint256)": {
        "details": "See {IERC20-approve}. Requirements: - `spender` cannot be the zero address."
      },
      "balanceOf(address)": {
        "details": "See {IERC20-balanceOf}."
      },
      "decimals()": {
        "details": "Returns the number of decimals used to get its user representation. For example, if `decimals` equals `2`, a balance of `505` tokens should be displayed to a user as `5,05` (`505 / 10 ** 2`). Tokens usually opt for a value of 18, imitating the relationship between Ether and Wei. This is the value {ERC20} uses, unless this function is overridden; NOTE: This information is only used for _display_ purposes: it in no way affects any of the arithmetic of the contract, including {IERC20-balanceOf} and {IERC20-transfer}."
      },
      "decreaseAllowance(address,uint256)": {
        "details": "Atomically decreases the allowance granted to `spender` by the caller. This is an alternative to {approve} that can be used as a mitigation for problems described in {IERC20-approve}. Emits an {Approval} event indicating the updated allowance. Requirements: - `spender` cannot be the zero address. - `spender` must have allowance for the caller of at least `subtractedValue`."
      },
      "increaseAllowance(address,uint256)": {
        "details": "Atomically increases the allowance granted to `spender` by the caller. This is an alternative to {approve} that can be used as a mitigation for problems described in {IERC20-approve}. Emits an {Approval} event indicating the updated allowance. Requirements: - `spender` cannot be the zero address."
      },
      "name()": {
        "details": "Returns the name of the token."
      },
      "symbol()": {
        "details": "Returns the symbol of the token, usually a shorter version of the name."
      },
      "totalSupply()": {
        "details": "See {IERC20-totalSupply}."
      },
      "transfer(address,uint256)": {
        "details": "See {IERC20-transfer}. Requirements: - `recipient` cannot be the zero address. - the caller must have a balance of at least `amount`."
      },
      "transferFrom(address,address,uint256)": {
        "details": "See {IERC20-transferFrom}. Emits an {Approval} event indicating the updated allowance. This is not required by the EIP. See the note at the beginning of {ERC20}. Requirements: - `sender` and `recipient` cannot be the zero address. - `sender` must have a balance of at least `amount`. - the caller must have allowance for ``sender``'s tokens of at least `amount`."
      }
    },
    "version": 1
  },
  "userdoc": {
    "kind": "user",
    "methods": {},
    "version": 1
  },
  "storageLayout": {
    "storage": [
      {
        "astId": 15,
        "contract": "contracts/PiggyReward.sol:PiggyReward",
        "label": "_balances",
        "offset": 0,
        "slot": "0",
        "type": "t_mapping(t_address,t_uint256)"
      },
      {
        "astId": 21,
        "contract": "contracts/PiggyReward.sol:PiggyReward",
        "label": "_allowances",
        "offset": 0,
        "slot": "1",
        "type": "t_mapping(t_address,t_mapping(t_address,t_uint256))"
      },
      {
        "astId": 23,
        "contract": "contracts/PiggyReward.sol:PiggyReward",
        "label": "_totalSupply",
        "offset": 0,
        "slot": "2",
        "type": "t_uint256"
      },
      {
        "astId": 25,
        "contract": "contracts/PiggyReward.sol:PiggyReward",
        "label": "_name",
        "offset": 0,
        "slot": "3",
        "type": "t_string_storage"
      },
      {
        "astId": 27,
        "contract": "contracts/PiggyReward.sol:PiggyReward",
        "label": "_symbol",
        "offset": 0,
        "slot": "4",
        "type": "t_string_storage"
      },
      {
        "astId": 1169,
        "contract": "contracts/PiggyReward.sol:PiggyReward",
        "label": "governance",
        "offset": 0,
        "slot": "5",
        "type": "t_address"
      },
      {
        "astId": 1171,
        "contract": "contracts/PiggyReward.sol:PiggyReward",
        "label": "vaultMigration",
        "offset": 0,
        "slot": "6",
        "type": "t_address"
      },
      {
        "astId": 1173,
        "contract": "contracts/PiggyReward.sol:PiggyReward",
        "label": "rewardMultipler",
        "offset": 0,
        "slot": "7",
        "type": "t_uint256"
      }
    ],
    "types": {
      "t_address": {
        "encoding": "inplace",
        "label": "address",
        "numberOfBytes": "20"
      },
      "t_mapping(t_address,t_mapping(t_address,t_uint256))": {
        "encoding": "mapping",
        "key": "t_address",
        "label": "mapping(address => mapping(address => uint256))",
        "numberOfBytes": "32",
        "value": "t_mapping(t_address,t_uint256)"
      },
      "t_mapping(t_address,t_uint256)": {
        "encoding": "mapping",
        "key": "t_address",
        "label": "mapping(address => uint256)",
        "numberOfBytes": "32",
        "value": "t_uint256"
      },
      "t_string_storage": {
        "encoding": "bytes",
        "label": "string",
        "numberOfBytes": "32"
      },
      "t_uint256": {
        "encoding": "inplace",
        "label": "uint256",
        "numberOfBytes": "32"
      }
    }
  }
}