{
  "address": "0x10c411D2BAF19827E7D28fAAd36529787cF4Ac2C",
  "abi": [
    {
      "inputs": [
        {
          "internalType": "string",
          "name": "_name",
          "type": "string"
        },
        {
          "internalType": "string",
          "name": "_symbol",
          "type": "string"
        },
        {
          "internalType": "address",
          "name": "_vaultMigration",
          "type": "address"
        },
        {
          "internalType": "uint256",
          "name": "_rewardMultipler",
          "type": "uint256"
        },
        {
          "internalType": "contract IERC20",
          "name": "_tokenPiggy",
          "type": "address"
        }
      ],
      "stateMutability": "nonpayable",
      "type": "constructor"
    },
    {
      "anonymous": false,
      "inputs": [
        {
          "indexed": true,
          "internalType": "address",
          "name": "owner",
          "type": "address"
        },
        {
          "indexed": true,
          "internalType": "address",
          "name": "spender",
          "type": "address"
        },
        {
          "indexed": false,
          "internalType": "uint256",
          "name": "value",
          "type": "uint256"
        }
      ],
      "name": "Approval",
      "type": "event"
    },
    {
      "anonymous": false,
      "inputs": [
        {
          "indexed": true,
          "internalType": "address",
          "name": "from",
          "type": "address"
        },
        {
          "indexed": true,
          "internalType": "address",
          "name": "to",
          "type": "address"
        },
        {
          "indexed": false,
          "internalType": "uint256",
          "name": "value",
          "type": "uint256"
        }
      ],
      "name": "Transfer",
      "type": "event"
    },
    {
      "inputs": [
        {
          "internalType": "address",
          "name": "owner",
          "type": "address"
        },
        {
          "internalType": "address",
          "name": "spender",
          "type": "address"
        }
      ],
      "name": "allowance",
      "outputs": [
        {
          "internalType": "uint256",
          "name": "",
          "type": "uint256"
        }
      ],
      "stateMutability": "view",
      "type": "function"
    },
    {
      "inputs": [
        {
          "internalType": "address",
          "name": "spender",
          "type": "address"
        },
        {
          "internalType": "uint256",
          "name": "amount",
          "type": "uint256"
        }
      ],
      "name": "approve",
      "outputs": [
        {
          "internalType": "bool",
          "name": "",
          "type": "bool"
        }
      ],
      "stateMutability": "nonpayable",
      "type": "function"
    },
    {
      "inputs": [
        {
          "internalType": "address",
          "name": "account",
          "type": "address"
        }
      ],
      "name": "balanceOf",
      "outputs": [
        {
          "internalType": "uint256",
          "name": "",
          "type": "uint256"
        }
      ],
      "stateMutability": "view",
      "type": "function"
    },
    {
      "inputs": [
        {
          "internalType": "uint256",
          "name": "_amount",
          "type": "uint256"
        }
      ],
      "name": "claimReward",
      "outputs": [],
      "stateMutability": "nonpayable",
      "type": "function"
    },
    {
      "inputs": [],
      "name": "decimals",
      "outputs": [
        {
          "internalType": "uint8",
          "name": "",
          "type": "uint8"
        }
      ],
      "stateMutability": "pure",
      "type": "function"
    },
    {
      "inputs": [
        {
          "internalType": "address",
          "name": "spender",
          "type": "address"
        },
        {
          "internalType": "uint256",
          "name": "subtractedValue",
          "type": "uint256"
        }
      ],
      "name": "decreaseAllowance",
      "outputs": [
        {
          "internalType": "bool",
          "name": "",
          "type": "bool"
        }
      ],
      "stateMutability": "nonpayable",
      "type": "function"
    },
    {
      "inputs": [],
      "name": "governance",
      "outputs": [
        {
          "internalType": "address",
          "name": "",
          "type": "address"
        }
      ],
      "stateMutability": "view",
      "type": "function"
    },
    {
      "inputs": [
        {
          "internalType": "address",
          "name": "spender",
          "type": "address"
        },
        {
          "internalType": "uint256",
          "name": "addedValue",
          "type": "uint256"
        }
      ],
      "name": "increaseAllowance",
      "outputs": [
        {
          "internalType": "bool",
          "name": "",
          "type": "bool"
        }
      ],
      "stateMutability": "nonpayable",
      "type": "function"
    },
    {
      "inputs": [],
      "name": "name",
      "outputs": [
        {
          "internalType": "string",
          "name": "",
          "type": "string"
        }
      ],
      "stateMutability": "view",
      "type": "function"
    },
    {
      "inputs": [
        {
          "internalType": "address",
          "name": "_account",
          "type": "address"
        },
        {
          "internalType": "uint256",
          "name": "_nums",
          "type": "uint256"
        }
      ],
      "name": "reward",
      "outputs": [],
      "stateMutability": "nonpayable",
      "type": "function"
    },
    {
      "inputs": [],
      "name": "rewardMultipler",
      "outputs": [
        {
          "internalType": "uint256",
          "name": "",
          "type": "uint256"
        }
      ],
      "stateMutability": "view",
      "type": "function"
    },
    {
      "inputs": [
        {
          "internalType": "address",
          "name": "_governance",
          "type": "address"
        }
      ],
      "name": "setGovernance",
      "outputs": [],
      "stateMutability": "nonpayable",
      "type": "function"
    },
    {
      "inputs": [
        {
          "internalType": "uint256",
          "name": "_rewardMultipler",
          "type": "uint256"
        }
      ],
      "name": "setRewardMultipler",
      "outputs": [],
      "stateMutability": "nonpayable",
      "type": "function"
    },
    {
      "inputs": [
        {
          "internalType": "address",
          "name": "_vaultMigration",
          "type": "address"
        }
      ],
      "name": "setVaultMigration",
      "outputs": [],
      "stateMutability": "nonpayable",
      "type": "function"
    },
    {
      "inputs": [],
      "name": "symbol",
      "outputs": [
        {
          "internalType": "string",
          "name": "",
          "type": "string"
        }
      ],
      "stateMutability": "view",
      "type": "function"
    },
    {
      "inputs": [],
      "name": "tokenPiggy",
      "outputs": [
        {
          "internalType": "contract IERC20",
          "name": "",
          "type": "address"
        }
      ],
      "stateMutability": "view",
      "type": "function"
    },
    {
      "inputs": [],
      "name": "totalSupply",
      "outputs": [
        {
          "internalType": "uint256",
          "name": "",
          "type": "uint256"
        }
      ],
      "stateMutability": "view",
      "type": "function"
    },
    {
      "inputs": [
        {
          "internalType": "address",
          "name": "recipient",
          "type": "address"
        },
        {
          "internalType": "uint256",
          "name": "amount",
          "type": "uint256"
        }
      ],
      "name": "transfer",
      "outputs": [
        {
          "internalType": "bool",
          "name": "",
          "type": "bool"
        }
      ],
      "stateMutability": "nonpayable",
      "type": "function"
    },
    {
      "inputs": [
        {
          "internalType": "address",
          "name": "sender",
          "type": "address"
        },
        {
          "internalType": "address",
          "name": "recipient",
          "type": "address"
        },
        {
          "internalType": "uint256",
          "name": "amount",
          "type": "uint256"
        }
      ],
      "name": "transferFrom",
      "outputs": [
        {
          "internalType": "bool",
          "name": "",
          "type": "bool"
        }
      ],
      "stateMutability": "nonpayable",
      "type": "function"
    },
    {
      "inputs": [],
      "name": "vaultMigration",
      "outputs": [
        {
          "internalType": "address",
          "name": "",
          "type": "address"
        }
      ],
      "stateMutability": "view",
      "type": "function"
    }
  ],
  "transactionHash": "0x35ea3133223d8c38f746a0ef6bb3773c3fb5dd22c2735efe358e64b5ff9f9684",
  "args": [
    "Piggy Migration Reward",
    "mrPiggy",
    "0x7B5bEC16E05109fD3c8fC26b00293c2aED7Bf951",
    100,
    "0x8E3458e7F78a4e1901922E439992D3810d4dF506"
  ],
  "solcInputHash": "089972a007aa9d53af6b97995a73e73c",
  "bytecode": "0x60a06040523480156200001157600080fd5b5060405162002ff838038062002ff88339818101604052810190620000379190620003b8565b84848160039080519060200190620000519291906200020e565b5080600490805190602001906200006a9291906200020e565b50505033600560006101000a81548173ffffffffffffffffffffffffffffffffffffffff021916908373ffffffffffffffffffffffffffffffffffffffff16021790555082600660006101000a81548173ffffffffffffffffffffffffffffffffffffffff021916908373ffffffffffffffffffffffffffffffffffffffff160217905550816007819055508073ffffffffffffffffffffffffffffffffffffffff1660808173ffffffffffffffffffffffffffffffffffffffff1660601b815250508073ffffffffffffffffffffffffffffffffffffffff1663095ea7b3600560009054906101000a900473ffffffffffffffffffffffffffffffffffffffff167fffffffffffffffffffffffffffffffffffffffffffffffffffffffffffffffff6040518363ffffffff1660e01b8152600401620001ac9291906200048e565b602060405180830381600087803b158015620001c757600080fd5b505af1158015620001dc573d6000803e3d6000fd5b505050506040513d601f19601f820116820180604052508101906200020291906200038c565b505050505050620006f1565b8280546200021c90620005ae565b90600052602060002090601f0160209004810192826200024057600085556200028c565b82601f106200025b57805160ff19168380011785556200028c565b828001600101855582156200028c579182015b828111156200028b5782518255916020019190600101906200026e565b5b5090506200029b91906200029f565b5090565b5b80821115620002ba576000816000905550600101620002a0565b5090565b6000620002d5620002cf84620004e4565b620004bb565b905082815260208101848484011115620002ee57600080fd5b620002fb84828562000578565b509392505050565b600081519050620003148162000689565b92915050565b6000815190506200032b81620006a3565b92915050565b6000815190506200034281620006bd565b92915050565b600082601f8301126200035a57600080fd5b81516200036c848260208601620002be565b91505092915050565b6000815190506200038681620006d7565b92915050565b6000602082840312156200039f57600080fd5b6000620003af848285016200031a565b91505092915050565b600080600080600060a08688031215620003d157600080fd5b600086015167ffffffffffffffff811115620003ec57600080fd5b620003fa8882890162000348565b955050602086015167ffffffffffffffff8111156200041857600080fd5b620004268882890162000348565b9450506040620004398882890162000303565b93505060606200044c8882890162000375565b92505060806200045f8882890162000331565b9150509295509295909350565b62000477816200051a565b82525050565b62000488816200056e565b82525050565b6000604082019050620004a560008301856200046c565b620004b460208301846200047d565b9392505050565b6000620004c7620004da565b9050620004d58282620005e4565b919050565b6000604051905090565b600067ffffffffffffffff82111562000502576200050162000649565b5b6200050d8262000678565b9050602081019050919050565b600062000527826200054e565b9050919050565b60008115159050919050565b600062000547826200051a565b9050919050565b600073ffffffffffffffffffffffffffffffffffffffff82169050919050565b6000819050919050565b60005b83811015620005985780820151818401526020810190506200057b565b83811115620005a8576000848401525b50505050565b60006002820490506001821680620005c757607f821691505b60208210811415620005de57620005dd6200061a565b5b50919050565b620005ef8262000678565b810181811067ffffffffffffffff8211171562000611576200061062000649565b5b80604052505050565b7f4e487b7100000000000000000000000000000000000000000000000000000000600052602260045260246000fd5b7f4e487b7100000000000000000000000000000000000000000000000000000000600052604160045260246000fd5b6000601f19601f8301169050919050565b62000694816200051a565b8114620006a057600080fd5b50565b620006ae816200052e565b8114620006ba57600080fd5b50565b620006c8816200053a565b8114620006d457600080fd5b50565b620006e2816200056e565b8114620006ee57600080fd5b50565b60805160601c6128cc6200072c6000396000818161088e01528181610b8001528181610c9201528181610d860152610e7f01526128cc6000f3fe608060405234801561001057600080fd5b506004361061012c5760003560e01c80635aa6e675116100ad578063a457c2d711610071578063a457c2d714610335578063a9059cbb14610365578063ab033ea914610395578063ae169a50146103b1578063dd62ed3e146103cd5761012c565b80635aa6e6751461028f57806370a08231146102ad57806390b5dec1146102dd57806395d89b41146102fb5780639926c290146103195761012c565b806323b872dd116100f457806323b872dd146101d75780632bcf84fd14610207578063313ce5671461022357806339509351146102415780634d470963146102715761012c565b806306fdde0314610131578063095ea7b31461014f57806318160ddd1461017f5780631d3237e31461019d57806321670f22146101bb575b600080fd5b6101396103fd565b6040516101469190611f2c565b60405180910390f35b61016960048036038101906101649190611ac7565b61048f565b6040516101769190611ef6565b60405180910390f35b6101876104ad565b604051610194919061214e565b60405180910390f35b6101a56104b7565b6040516101b2919061214e565b60405180910390f35b6101d560048036038101906101d09190611ac7565b6104bd565b005b6101f160048036038101906101ec9190611a78565b61056e565b6040516101fe9190611ef6565b60405180910390f35b610221600480360381019061021c9190611a13565b61066f565b005b61022b610743565b6040516102389190612169565b60405180910390f35b61025b60048036038101906102569190611ac7565b61074c565b6040516102689190611ef6565b60405180910390f35b6102796107f8565b6040516102869190611e89565b60405180910390f35b61029761081e565b6040516102a49190611e89565b60405180910390f35b6102c760048036038101906102c29190611a13565b610844565b6040516102d4919061214e565b60405180910390f35b6102e561088c565b6040516102f29190611f11565b60405180910390f35b6103036108b0565b6040516103109190611f2c565b60405180910390f35b610333600480360381019061032e9190611b2c565b610942565b005b61034f600480360381019061034a9190611ac7565b6109dc565b60405161035c9190611ef6565b60405180910390f35b61037f600480360381019061037a9190611ac7565b610ad0565b60405161038c9190611ef6565b60405180910390f35b6103af60048036038101906103aa9190611a13565b610aee565b005b6103cb60048036038101906103c69190611b2c565b610d83565b005b6103e760048036038101906103e29190611a3c565b610ec6565b6040516103f4919061214e565b60405180910390f35b60606003805461040c90612358565b80601f016020809104026020016040519081016040528092919081815260200182805461043890612358565b80156104855780601f1061045a57610100808354040283529160200191610485565b820191906000526020600020905b81548152906001019060200180831161046857829003601f168201915b5050505050905090565b60006104a361049c610f4d565b8484610f55565b6001905092915050565b6000600254905090565b60075481565b600660009054906101000a900473ffffffffffffffffffffffffffffffffffffffff1673ffffffffffffffffffffffffffffffffffffffff163373ffffffffffffffffffffffffffffffffffffffff161461054d576040517f08c379a0000000000000000000000000000000000000000000000000000000008152600401610544906120ce565b60405180910390fd5b60006007548261055d919061220c565b90506105698382611120565b505050565b600061057b848484611274565b6000600160008673ffffffffffffffffffffffffffffffffffffffff1673ffffffffffffffffffffffffffffffffffffffff16815260200190815260200160002060006105c6610f4d565b73ffffffffffffffffffffffffffffffffffffffff1673ffffffffffffffffffffffffffffffffffffffff16815260200190815260200160002054905082811015610646576040517f08c379a000000000000000000000000000000000000000000000000000000000815260040161063d9061202e565b60405180910390fd5b61066385610652610f4d565b858461065e9190612266565b610f55565b60019150509392505050565b600560009054906101000a900473ffffffffffffffffffffffffffffffffffffffff1673ffffffffffffffffffffffffffffffffffffffff163373ffffffffffffffffffffffffffffffffffffffff16146106ff576040517f08c379a00000000000000000000000000000000000000000000000000000000081526004016106f690611fae565b60405180910390fd5b80600660006101000a81548173ffffffffffffffffffffffffffffffffffffffff021916908373ffffffffffffffffffffffffffffffffffffffff16021790555050565b60006012905090565b60006107ee610759610f4d565b848460016000610767610f4d565b73ffffffffffffffffffffffffffffffffffffffff1673ffffffffffffffffffffffffffffffffffffffff16815260200190815260200160002060008873ffffffffffffffffffffffffffffffffffffffff1673ffffffffffffffffffffffffffffffffffffffff168152602001908152602001600020546107e991906121b6565b610f55565b6001905092915050565b600660009054906101000a900473ffffffffffffffffffffffffffffffffffffffff1681565b600560009054906101000a900473ffffffffffffffffffffffffffffffffffffffff1681565b60008060008373ffffffffffffffffffffffffffffffffffffffff1673ffffffffffffffffffffffffffffffffffffffff168152602001908152602001600020549050919050565b7f000000000000000000000000000000000000000000000000000000000000000081565b6060600480546108bf90612358565b80601f01602080910402602001604051908101604052809291908181526020018280546108eb90612358565b80156109385780601f1061090d57610100808354040283529160200191610938565b820191906000526020600020905b81548152906001019060200180831161091b57829003601f168201915b5050505050905090565b600560009054906101000a900473ffffffffffffffffffffffffffffffffffffffff1673ffffffffffffffffffffffffffffffffffffffff163373ffffffffffffffffffffffffffffffffffffffff16146109d2576040517f08c379a00000000000000000000000000000000000000000000000000000000081526004016109c990611fae565b60405180910390fd5b8060078190555050565b600080600160006109eb610f4d565b73ffffffffffffffffffffffffffffffffffffffff1673ffffffffffffffffffffffffffffffffffffffff16815260200190815260200160002060008573ffffffffffffffffffffffffffffffffffffffff1673ffffffffffffffffffffffffffffffffffffffff16815260200190815260200160002054905082811015610aa8576040517f08c379a0000000000000000000000000000000000000000000000000000000008152600401610a9f9061210e565b60405180910390fd5b610ac5610ab3610f4d565b858584610ac09190612266565b610f55565b600191505092915050565b6000610ae4610add610f4d565b8484611274565b6001905092915050565b600560009054906101000a900473ffffffffffffffffffffffffffffffffffffffff1673ffffffffffffffffffffffffffffffffffffffff163373ffffffffffffffffffffffffffffffffffffffff1614610b7e576040517f08c379a0000000000000000000000000000000000000000000000000000000008152600401610b7590611fae565b60405180910390fd5b7f000000000000000000000000000000000000000000000000000000000000000073ffffffffffffffffffffffffffffffffffffffff1663095ea7b3600560009054906101000a900473ffffffffffffffffffffffffffffffffffffffff1660006040518363ffffffff1660e01b8152600401610bfc929190611ea4565b602060405180830381600087803b158015610c1657600080fd5b505af1158015610c2a573d6000803e3d6000fd5b505050506040513d601f19601f82011682018060405250810190610c4e9190611b03565b5080600560006101000a81548173ffffffffffffffffffffffffffffffffffffffff021916908373ffffffffffffffffffffffffffffffffffffffff1602179055507f000000000000000000000000000000000000000000000000000000000000000073ffffffffffffffffffffffffffffffffffffffff1663095ea7b3600560009054906101000a900473ffffffffffffffffffffffffffffffffffffffff167fffffffffffffffffffffffffffffffffffffffffffffffffffffffffffffffff6040518363ffffffff1660e01b8152600401610d2d929190611ecd565b602060405180830381600087803b158015610d4757600080fd5b505af1158015610d5b573d6000803e3d6000fd5b505050506040513d601f19601f82011682018060405250810190610d7f9190611b03565b5050565b807f000000000000000000000000000000000000000000000000000000000000000073ffffffffffffffffffffffffffffffffffffffff166370a08231306040518263ffffffff1660e01b8152600401610ddd9190611e89565b60206040518083038186803b158015610df557600080fd5b505afa158015610e09573d6000803e3d6000fd5b505050506040513d601f19601f82011682018060405250810190610e2d9190611b55565b1015610e6e576040517f08c379a0000000000000000000000000000000000000000000000000000000008152600401610e6590611f4e565b60405180910390fd5b610e7833826114f3565b610ec333827f000000000000000000000000000000000000000000000000000000000000000073ffffffffffffffffffffffffffffffffffffffff166116c79092919063ffffffff16565b50565b6000600160008473ffffffffffffffffffffffffffffffffffffffff1673ffffffffffffffffffffffffffffffffffffffff16815260200190815260200160002060008373ffffffffffffffffffffffffffffffffffffffff1673ffffffffffffffffffffffffffffffffffffffff16815260200190815260200160002054905092915050565b600033905090565b600073ffffffffffffffffffffffffffffffffffffffff168373ffffffffffffffffffffffffffffffffffffffff161415610fc5576040517f08c379a0000000000000000000000000000000000000000000000000000000008152600401610fbc9061208e565b60405180910390fd5b600073ffffffffffffffffffffffffffffffffffffffff168273ffffffffffffffffffffffffffffffffffffffff161415611035576040517f08c379a000000000000000000000000000000000000000000000000000000000815260040161102c90611fce565b60405180910390fd5b80600160008573ffffffffffffffffffffffffffffffffffffffff1673ffffffffffffffffffffffffffffffffffffffff16815260200190815260200160002060008473ffffffffffffffffffffffffffffffffffffffff1673ffffffffffffffffffffffffffffffffffffffff168152602001908152602001600020819055508173ffffffffffffffffffffffffffffffffffffffff168373ffffffffffffffffffffffffffffffffffffffff167f8c5be1e5ebec7d5bd14f71427d1e84f3dd0314c0f7b2291e5b200ac8c7c3b92583604051611113919061214e565b60405180910390a3505050565b600073ffffffffffffffffffffffffffffffffffffffff168273ffffffffffffffffffffffffffffffffffffffff161415611190576040517f08c379a00000000000000000000000000000000000000000000000000000000081526004016111879061212e565b60405180910390fd5b61119c6000838361174d565b80600260008282546111ae91906121b6565b92505081905550806000808473ffffffffffffffffffffffffffffffffffffffff1673ffffffffffffffffffffffffffffffffffffffff168152602001908152602001600020600082825461120391906121b6565b925050819055508173ffffffffffffffffffffffffffffffffffffffff16600073ffffffffffffffffffffffffffffffffffffffff167fddf252ad1be2c89b69c2b068fc378daa952ba7f163c4a11628f55a4df523b3ef83604051611268919061214e565b60405180910390a35050565b600073ffffffffffffffffffffffffffffffffffffffff168373ffffffffffffffffffffffffffffffffffffffff1614156112e4576040517f08c379a00000000000000000000000000000000000000000000000000000000081526004016112db9061206e565b60405180910390fd5b600073ffffffffffffffffffffffffffffffffffffffff168273ffffffffffffffffffffffffffffffffffffffff161415611354576040517f08c379a000000000000000000000000000000000000000000000000000000000815260040161134b90611f6e565b60405180910390fd5b61135f83838361174d565b60008060008573ffffffffffffffffffffffffffffffffffffffff1673ffffffffffffffffffffffffffffffffffffffff168152602001908152602001600020549050818110156113e5576040517f08c379a00000000000000000000000000000000000000000000000000000000081526004016113dc90611fee565b60405180910390fd5b81816113f19190612266565b6000808673ffffffffffffffffffffffffffffffffffffffff1673ffffffffffffffffffffffffffffffffffffffff16815260200190815260200160002081905550816000808573ffffffffffffffffffffffffffffffffffffffff1673ffffffffffffffffffffffffffffffffffffffff168152602001908152602001600020600082825461148191906121b6565b925050819055508273ffffffffffffffffffffffffffffffffffffffff168473ffffffffffffffffffffffffffffffffffffffff167fddf252ad1be2c89b69c2b068fc378daa952ba7f163c4a11628f55a4df523b3ef846040516114e5919061214e565b60405180910390a350505050565b600073ffffffffffffffffffffffffffffffffffffffff168273ffffffffffffffffffffffffffffffffffffffff161415611563576040517f08c379a000000000000000000000000000000000000000000000000000000000815260040161155a9061204e565b60405180910390fd5b61156f8260008361174d565b60008060008473ffffffffffffffffffffffffffffffffffffffff1673ffffffffffffffffffffffffffffffffffffffff168152602001908152602001600020549050818110156115f5576040517f08c379a00000000000000000000000000000000000000000000000000000000081526004016115ec90611f8e565b60405180910390fd5b81816116019190612266565b6000808573ffffffffffffffffffffffffffffffffffffffff1673ffffffffffffffffffffffffffffffffffffffff1681526020019081526020016000208190555081600260008282546116559190612266565b92505081905550600073ffffffffffffffffffffffffffffffffffffffff168373ffffffffffffffffffffffffffffffffffffffff167fddf252ad1be2c89b69c2b068fc378daa952ba7f163c4a11628f55a4df523b3ef846040516116ba919061214e565b60405180910390a3505050565b6117488363a9059cbb60e01b84846040516024016116e6929190611ecd565b604051602081830303815290604052907bffffffffffffffffffffffffffffffffffffffffffffffffffffffff19166020820180517bffffffffffffffffffffffffffffffffffffffffffffffffffffffff8381831617835250505050611752565b505050565b505050565b60006117b4826040518060400160405280602081526020017f5361666545524332303a206c6f772d6c6576656c2063616c6c206661696c65648152508573ffffffffffffffffffffffffffffffffffffffff166118199092919063ffffffff16565b905060008151111561181457808060200190518101906117d49190611b03565b611813576040517f08c379a000000000000000000000000000000000000000000000000000000000815260040161180a906120ee565b60405180910390fd5b5b505050565b60606118288484600085611831565b90509392505050565b606082471015611876576040517f08c379a000000000000000000000000000000000000000000000000000000000815260040161186d9061200e565b60405180910390fd5b61187f85611945565b6118be576040517f08c379a00000000000000000000000000000000000000000000000000000000081526004016118b5906120ae565b60405180910390fd5b6000808673ffffffffffffffffffffffffffffffffffffffff1685876040516118e79190611e72565b60006040518083038185875af1925050503d8060008114611924576040519150601f19603f3d011682016040523d82523d6000602084013e611929565b606091505b5091509150611939828286611958565b92505050949350505050565b600080823b905060008111915050919050565b60608315611968578290506119b8565b60008351111561197b5782518084602001fd5b816040517f08c379a00000000000000000000000000000000000000000000000000000000081526004016119af9190611f2c565b60405180910390fd5b9392505050565b6000813590506119ce81612851565b92915050565b6000815190506119e381612868565b92915050565b6000813590506119f88161287f565b92915050565b600081519050611a0d8161287f565b92915050565b600060208284031215611a2557600080fd5b6000611a33848285016119bf565b91505092915050565b60008060408385031215611a4f57600080fd5b6000611a5d858286016119bf565b9250506020611a6e858286016119bf565b9150509250929050565b600080600060608486031215611a8d57600080fd5b6000611a9b868287016119bf565b9350506020611aac868287016119bf565b9250506040611abd868287016119e9565b9150509250925092565b60008060408385031215611ada57600080fd5b6000611ae8858286016119bf565b9250506020611af9858286016119e9565b9150509250929050565b600060208284031215611b1557600080fd5b6000611b23848285016119d4565b91505092915050565b600060208284031215611b3e57600080fd5b6000611b4c848285016119e9565b91505092915050565b600060208284031215611b6757600080fd5b6000611b75848285016119fe565b91505092915050565b611b878161229a565b82525050565b611b96816122ac565b82525050565b6000611ba782612184565b611bb1818561219a565b9350611bc1818560208601612325565b80840191505092915050565b611bd6816122ef565b82525050565b611be581612313565b82525050565b6000611bf68261218f565b611c0081856121a5565b9350611c10818560208601612325565b611c19816123e8565b840191505092915050565b6000611c316024836121a5565b9150611c3c826123f9565b604082019050919050565b6000611c546023836121a5565b9150611c5f82612448565b604082019050919050565b6000611c776022836121a5565b9150611c8282612497565b604082019050919050565b6000611c9a600b836121a5565b9150611ca5826124e6565b602082019050919050565b6000611cbd6022836121a5565b9150611cc88261250f565b604082019050919050565b6000611ce06026836121a5565b9150611ceb8261255e565b604082019050919050565b6000611d036026836121a5565b9150611d0e826125ad565b604082019050919050565b6000611d266028836121a5565b9150611d31826125fc565b604082019050919050565b6000611d496021836121a5565b9150611d548261264b565b604082019050919050565b6000611d6c6025836121a5565b9150611d778261269a565b604082019050919050565b6000611d8f6024836121a5565b9150611d9a826126e9565b604082019050919050565b6000611db2601d836121a5565b9150611dbd82612738565b602082019050919050565b6000611dd5600f836121a5565b9150611de082612761565b602082019050919050565b6000611df8602a836121a5565b9150611e038261278a565b604082019050919050565b6000611e1b6025836121a5565b9150611e26826127d9565b604082019050919050565b6000611e3e601f836121a5565b9150611e4982612828565b602082019050919050565b611e5d816122d8565b82525050565b611e6c816122e2565b82525050565b6000611e7e8284611b9c565b915081905092915050565b6000602082019050611e9e6000830184611b7e565b92915050565b6000604082019050611eb96000830185611b7e565b611ec66020830184611bdc565b9392505050565b6000604082019050611ee26000830185611b7e565b611eef6020830184611e54565b9392505050565b6000602082019050611f0b6000830184611b8d565b92915050565b6000602082019050611f266000830184611bcd565b92915050565b60006020820190508181036000830152611f468184611beb565b905092915050565b60006020820190508181036000830152611f6781611c24565b9050919050565b60006020820190508181036000830152611f8781611c47565b9050919050565b60006020820190508181036000830152611fa781611c6a565b9050919050565b60006020820190508181036000830152611fc781611c8d565b9050919050565b60006020820190508181036000830152611fe781611cb0565b9050919050565b6000602082019050818103600083015261200781611cd3565b9050919050565b6000602082019050818103600083015261202781611cf6565b9050919050565b6000602082019050818103600083015261204781611d19565b9050919050565b6000602082019050818103600083015261206781611d3c565b9050919050565b6000602082019050818103600083015261208781611d5f565b9050919050565b600060208201905081810360008301526120a781611d82565b9050919050565b600060208201905081810360008301526120c781611da5565b9050919050565b600060208201905081810360008301526120e781611dc8565b9050919050565b6000602082019050818103600083015261210781611deb565b9050919050565b6000602082019050818103600083015261212781611e0e565b9050919050565b6000602082019050818103600083015261214781611e31565b9050919050565b60006020820190506121636000830184611e54565b92915050565b600060208201905061217e6000830184611e63565b92915050565b600081519050919050565b600081519050919050565b600081905092915050565b600082825260208201905092915050565b60006121c1826122d8565b91506121cc836122d8565b9250827fffffffffffffffffffffffffffffffffffffffffffffffffffffffffffffffff038211156122015761220061238a565b5b828201905092915050565b6000612217826122d8565b9150612222836122d8565b9250817fffffffffffffffffffffffffffffffffffffffffffffffffffffffffffffffff048311821515161561225b5761225a61238a565b5b828202905092915050565b6000612271826122d8565b915061227c836122d8565b92508282101561228f5761228e61238a565b5b828203905092915050565b60006122a5826122b8565b9050919050565b60008115159050919050565b600073ffffffffffffffffffffffffffffffffffffffff82169050919050565b6000819050919050565b600060ff82169050919050565b60006122fa82612301565b9050919050565b600061230c826122b8565b9050919050565b600061231e826122d8565b9050919050565b60005b83811015612343578082015181840152602081019050612328565b83811115612352576000848401525b50505050565b6000600282049050600182168061237057607f821691505b60208210811415612384576123836123b9565b5b50919050565b7f4e487b7100000000000000000000000000000000000000000000000000000000600052601160045260246000fd5b7f4e487b7100000000000000000000000000000000000000000000000000000000600052602260045260246000fd5b6000601f19601f8301169050919050565b7f776974686472617720616d6f756e74206578636565647320706f6f6c2062616c60008201527f616e636500000000000000000000000000000000000000000000000000000000602082015250565b7f45524332303a207472616e7366657220746f20746865207a65726f206164647260008201527f6573730000000000000000000000000000000000000000000000000000000000602082015250565b7f45524332303a206275726e20616d6f756e7420657863656564732062616c616e60008201527f6365000000000000000000000000000000000000000000000000000000000000602082015250565b7f21676f7665726e616e6365000000000000000000000000000000000000000000600082015250565b7f45524332303a20617070726f766520746f20746865207a65726f20616464726560008201527f7373000000000000000000000000000000000000000000000000000000000000602082015250565b7f45524332303a207472616e7366657220616d6f756e742065786365656473206260008201527f616c616e63650000000000000000000000000000000000000000000000000000602082015250565b7f416464726573733a20696e73756666696369656e742062616c616e636520666f60008201527f722063616c6c0000000000000000000000000000000000000000000000000000602082015250565b7f45524332303a207472616e7366657220616d6f756e742065786365656473206160008201527f6c6c6f77616e6365000000000000000000000000000000000000000000000000602082015250565b7f45524332303a206275726e2066726f6d20746865207a65726f2061646472657360008201527f7300000000000000000000000000000000000000000000000000000000000000602082015250565b7f45524332303a207472616e736665722066726f6d20746865207a65726f20616460008201527f6472657373000000000000000000000000000000000000000000000000000000602082015250565b7f45524332303a20617070726f76652066726f6d20746865207a65726f2061646460008201527f7265737300000000000000000000000000000000000000000000000000000000602082015250565b7f416464726573733a2063616c6c20746f206e6f6e2d636f6e7472616374000000600082015250565b7f217661756c744d6967726174696f6e0000000000000000000000000000000000600082015250565b7f5361666545524332303a204552433230206f7065726174696f6e20646964206e60008201527f6f74207375636365656400000000000000000000000000000000000000000000602082015250565b7f45524332303a2064656372656173656420616c6c6f77616e63652062656c6f7760008201527f207a65726f000000000000000000000000000000000000000000000000000000602082015250565b7f45524332303a206d696e7420746f20746865207a65726f206164647265737300600082015250565b61285a8161229a565b811461286557600080fd5b50565b612871816122ac565b811461287c57600080fd5b50565b612888816122d8565b811461289357600080fd5b5056fea26469706673582212207cb15a63fecbf1acaabb11061209b9b2f54269730e0e0098317b5b60a8bfd16664736f6c63430008040033",
  "devdoc": {
    "kind": "dev",
    "methods": {
      "allowance(address,address)": {
        "details": "See {IERC20-allowance}."
      },
      "approve(address,uint256)": {
        "details": "See {IERC20-approve}. Requirements: - `spender` cannot be the zero address."
      },
      "balanceOf(address)": {
        "details": "See {IERC20-balanceOf}."
      },
      "decimals()": {
        "details": "Returns the number of decimals used to get its user representation. For example, if `decimals` equals `2`, a balance of `505` tokens should be displayed to a user as `5,05` (`505 / 10 ** 2`). Tokens usually opt for a value of 18, imitating the relationship between Ether and Wei. This is the value {ERC20} uses, unless this function is overridden; NOTE: This information is only used for _display_ purposes: it in no way affects any of the arithmetic of the contract, including {IERC20-balanceOf} and {IERC20-transfer}."
      },
      "decreaseAllowance(address,uint256)": {
        "details": "Atomically decreases the allowance granted to `spender` by the caller. This is an alternative to {approve} that can be used as a mitigation for problems described in {IERC20-approve}. Emits an {Approval} event indicating the updated allowance. Requirements: - `spender` cannot be the zero address. - `spender` must have allowance for the caller of at least `subtractedValue`."
      },
      "increaseAllowance(address,uint256)": {
        "details": "Atomically increases the allowance granted to `spender` by the caller. This is an alternative to {approve} that can be used as a mitigation for problems described in {IERC20-approve}. Emits an {Approval} event indicating the updated allowance. Requirements: - `spender` cannot be the zero address."
      },
      "name()": {
        "details": "Returns the name of the token."
      },
      "symbol()": {
        "details": "Returns the symbol of the token, usually a shorter version of the name."
      },
      "totalSupply()": {
        "details": "See {IERC20-totalSupply}."
      },
      "transfer(address,uint256)": {
        "details": "See {IERC20-transfer}. Requirements: - `recipient` cannot be the zero address. - the caller must have a balance of at least `amount`."
      },
      "transferFrom(address,address,uint256)": {
        "details": "See {IERC20-transferFrom}. Emits an {Approval} event indicating the updated allowance. This is not required by the EIP. See the note at the beginning of {ERC20}. Requirements: - `sender` and `recipient` cannot be the zero address. - `sender` must have a balance of at least `amount`. - the caller must have allowance for ``sender``'s tokens of at least `amount`."
      }
    },
    "version": 1
  },
  "userdoc": {
    "kind": "user",
    "methods": {},
    "version": 1
  },
  "storageLayout": {
    "storage": [
      {
        "astId": 15,
        "contract": "contracts/PiggyReward.sol:PiggyReward",
        "label": "_balances",
        "offset": 0,
        "slot": "0",
        "type": "t_mapping(t_address,t_uint256)"
      },
      {
        "astId": 21,
        "contract": "contracts/PiggyReward.sol:PiggyReward",
        "label": "_allowances",
        "offset": 0,
        "slot": "1",
        "type": "t_mapping(t_address,t_mapping(t_address,t_uint256))"
      },
      {
        "astId": 23,
        "contract": "contracts/PiggyReward.sol:PiggyReward",
        "label": "_totalSupply",
        "offset": 0,
        "slot": "2",
        "type": "t_uint256"
      },
      {
        "astId": 25,
        "contract": "contracts/PiggyReward.sol:PiggyReward",
        "label": "_name",
        "offset": 0,
        "slot": "3",
        "type": "t_string_storage"
      },
      {
        "astId": 27,
        "contract": "contracts/PiggyReward.sol:PiggyReward",
        "label": "_symbol",
        "offset": 0,
        "slot": "4",
        "type": "t_string_storage"
      },
      {
        "astId": 1172,
        "contract": "contracts/PiggyReward.sol:PiggyReward",
        "label": "governance",
        "offset": 0,
        "slot": "5",
        "type": "t_address"
      },
      {
        "astId": 1174,
        "contract": "contracts/PiggyReward.sol:PiggyReward",
        "label": "vaultMigration",
        "offset": 0,
        "slot": "6",
        "type": "t_address"
      },
      {
        "astId": 1176,
        "contract": "contracts/PiggyReward.sol:PiggyReward",
        "label": "rewardMultipler",
        "offset": 0,
        "slot": "7",
        "type": "t_uint256"
      }
    ],
    "types": {
      "t_address": {
        "encoding": "inplace",
        "label": "address",
        "numberOfBytes": "20"
      },
      "t_mapping(t_address,t_mapping(t_address,t_uint256))": {
        "encoding": "mapping",
        "key": "t_address",
        "label": "mapping(address => mapping(address => uint256))",
        "numberOfBytes": "32",
        "value": "t_mapping(t_address,t_uint256)"
      },
      "t_mapping(t_address,t_uint256)": {
        "encoding": "mapping",
        "key": "t_address",
        "label": "mapping(address => uint256)",
        "numberOfBytes": "32",
        "value": "t_uint256"
      },
      "t_string_storage": {
        "encoding": "bytes",
        "label": "string",
        "numberOfBytes": "32"
      },
      "t_uint256": {
        "encoding": "inplace",
        "label": "uint256",
        "numberOfBytes": "32"
      }
    }
  }
}