{
  "address": "0x7B5bEC16E05109fD3c8fC26b00293c2aED7Bf951",
  "abi": [
    {
      "inputs": [
        {
          "internalType": "contract IDODOStablePool",
          "name": "_dodoStablePool",
          "type": "address"
        },
        {
          "internalType": "contract IVenusPriceOracle",
          "name": "_vPriceOracle",
          "type": "address"
        },
        {
          "internalType": "contract IVenusComptroller",
          "name": "_venusComptroller",
          "type": "address"
        },
        {
          "internalType": "contract ITroveManager",
          "name": "_troveManager",
          "type": "address"
        },
        {
          "internalType": "contract IBorrowerOperations",
          "name": "_borrowerOperations",
          "type": "address"
        },
        {
          "internalType": "contract IERC20",
          "name": "_tokenBUSD",
          "type": "address"
        },
        {
          "internalType": "contract IERC20",
          "name": "_tokenPUSD",
          "type": "address"
        },
        {
          "internalType": "contract IVenusToken",
          "name": "_vBNB",
          "type": "address"
        },
        {
          "internalType": "contract IVenusToken",
          "name": "_vBUSD",
          "type": "address"
        }
      ],
      "stateMutability": "nonpayable",
      "type": "constructor"
    },
    {
      "anonymous": false,
      "inputs": [
        {
          "indexed": true,
          "internalType": "address",
          "name": "_borrower",
          "type": "address"
        },
        {
          "indexed": false,
          "internalType": "uint256",
          "name": "_vBnbBalance",
          "type": "uint256"
        },
        {
          "indexed": false,
          "internalType": "uint256",
          "name": "_busdBorrowBalance",
          "type": "uint256"
        },
        {
          "indexed": false,
          "internalType": "uint256",
          "name": "_bnbColl",
          "type": "uint256"
        },
        {
          "indexed": false,
          "internalType": "uint256",
          "name": "_pusdDebt",
          "type": "uint256"
        }
      ],
      "name": "Migrated",
      "type": "event"
    },
    {
      "inputs": [
        {
          "internalType": "address",
          "name": "sender",
          "type": "address"
        },
        {
          "internalType": "uint256",
          "name": "baseAmount",
          "type": "uint256"
        },
        {
          "internalType": "uint256",
          "name": "quoteAmount",
          "type": "uint256"
        },
        {
          "internalType": "bytes",
          "name": "data",
          "type": "bytes"
        }
      ],
      "name": "DSPFlashLoanCall",
      "outputs": [],
      "stateMutability": "nonpayable",
      "type": "function"
    },
    {
      "inputs": [],
      "name": "borrowerOperations",
      "outputs": [
        {
          "internalType": "contract IBorrowerOperations",
          "name": "",
          "type": "address"
        }
      ],
      "stateMutability": "view",
      "type": "function"
    },
    {
      "inputs": [],
      "name": "dodoStablePool",
      "outputs": [
        {
          "internalType": "contract IDODOStablePool",
          "name": "",
          "type": "address"
        }
      ],
      "stateMutability": "view",
      "type": "function"
    },
    {
      "inputs": [],
      "name": "governance",
      "outputs": [
        {
          "internalType": "address",
          "name": "",
          "type": "address"
        }
      ],
      "stateMutability": "view",
      "type": "function"
    },
    {
      "inputs": [],
      "name": "piggyReward",
      "outputs": [
        {
          "internalType": "contract IPiggyReward",
          "name": "",
          "type": "address"
        }
      ],
      "stateMutability": "view",
      "type": "function"
    },
    {
      "inputs": [
        {
          "internalType": "address",
          "name": "_governance",
          "type": "address"
        }
      ],
      "name": "setGovernance",
      "outputs": [],
      "stateMutability": "nonpayable",
      "type": "function"
    },
    {
      "inputs": [
        {
          "internalType": "contract IPiggyReward",
          "name": "_piggyReward",
          "type": "address"
        }
      ],
      "name": "setPiggyReward",
      "outputs": [],
      "stateMutability": "nonpayable",
      "type": "function"
    },
    {
      "inputs": [
        {
          "internalType": "address",
          "name": "_upperHint",
          "type": "address"
        },
        {
          "internalType": "address",
          "name": "_lowerHint",
          "type": "address"
        }
      ],
      "name": "startMigrate",
      "outputs": [],
      "stateMutability": "nonpayable",
      "type": "function"
    },
    {
      "inputs": [],
      "name": "tokenBUSD",
      "outputs": [
        {
          "internalType": "contract IERC20",
          "name": "",
          "type": "address"
        }
      ],
      "stateMutability": "view",
      "type": "function"
    },
    {
      "inputs": [],
      "name": "tokenPUSD",
      "outputs": [
        {
          "internalType": "contract IERC20",
          "name": "",
          "type": "address"
        }
      ],
      "stateMutability": "view",
      "type": "function"
    },
    {
      "inputs": [],
      "name": "troveManager",
      "outputs": [
        {
          "internalType": "contract ITroveManager",
          "name": "",
          "type": "address"
        }
      ],
      "stateMutability": "view",
      "type": "function"
    },
    {
      "inputs": [],
      "name": "vBNB",
      "outputs": [
        {
          "internalType": "contract IVenusToken",
          "name": "",
          "type": "address"
        }
      ],
      "stateMutability": "view",
      "type": "function"
    },
    {
      "inputs": [],
      "name": "vBUSD",
      "outputs": [
        {
          "internalType": "contract IVenusToken",
          "name": "",
          "type": "address"
        }
      ],
      "stateMutability": "view",
      "type": "function"
    },
    {
      "stateMutability": "payable",
      "type": "receive"
    }
  ],
  "transactionHash": "0xd91ba9c605496ab4bfd97df252ba07d22300745b8ed573b76dc03c287c228035",
  "args": [
    "0x0000000000000000000000000000000000000000",
    "0xd61c7Fa07dF7241812eA6D21744a61f1257D1818",
    "0x94d1820b2D1c7c7452A163983Dc888CEC546b77D",
    "0x0000000000000000000000000000000000000000",
    "0x0000000000000000000000000000000000000000",
    "0x8301F2213c0eeD49a7E28Ae4c3e91722919B8B47",
    "0xcCB164A2e9A2e780A63EF65c29eB2D63b65078FC",
    "0x2E7222e51c0f6e98610A1543Aa3836E092CDe62c",
    "0x08e0A5575De71037aE36AbfAfb516595fE68e5e4"
  ],
  "solcInputHash": "402c2dae0785c64af89429494723f1f5",
  "bytecode": "0x6101a06040523480156200001257600080fd5b5060405162003a9738038062003a978339818101604052810190620000389190620005bb565b336000806101000a81548173ffffffffffffffffffffffffffffffffffffffff021916908373ffffffffffffffffffffffffffffffffffffffff1602179055508873ffffffffffffffffffffffffffffffffffffffff1660c08173ffffffffffffffffffffffffffffffffffffffff1660601b815250508773ffffffffffffffffffffffffffffffffffffffff1660e08173ffffffffffffffffffffffffffffffffffffffff1660601b815250508673ffffffffffffffffffffffffffffffffffffffff166101008173ffffffffffffffffffffffffffffffffffffffff1660601b815250508573ffffffffffffffffffffffffffffffffffffffff166101608173ffffffffffffffffffffffffffffffffffffffff1660601b815250508473ffffffffffffffffffffffffffffffffffffffff166101808173ffffffffffffffffffffffffffffffffffffffff1660601b815250508373ffffffffffffffffffffffffffffffffffffffff1660808173ffffffffffffffffffffffffffffffffffffffff1660601b815250508273ffffffffffffffffffffffffffffffffffffffff1660a08173ffffffffffffffffffffffffffffffffffffffff1660601b815250508173ffffffffffffffffffffffffffffffffffffffff166101208173ffffffffffffffffffffffffffffffffffffffff1660601b815250508073ffffffffffffffffffffffffffffffffffffffff166101408173ffffffffffffffffffffffffffffffffffffffff1660601b815250508373ffffffffffffffffffffffffffffffffffffffff1663095ea7b3827fffffffffffffffffffffffffffffffffffffffffffffffffffffffffffffffff6040518363ffffffff1660e01b8152600401620002c9929190620006b6565b602060405180830381600087803b158015620002e457600080fd5b505af1158015620002f9573d6000803e3d6000fd5b505050506040513d601f19601f820116820180604052508101906200031f91906200058f565b508373ffffffffffffffffffffffffffffffffffffffff1663095ea7b360008054906101000a900473ffffffffffffffffffffffffffffffffffffffff167fffffffffffffffffffffffffffffffffffffffffffffffffffffffffffffffff6040518363ffffffff1660e01b81526004016200039d929190620006b6565b602060405180830381600087803b158015620003b857600080fd5b505af1158015620003cd573d6000803e3d6000fd5b505050506040513d601f19601f82011682018060405250810190620003f391906200058f565b508273ffffffffffffffffffffffffffffffffffffffff1663095ea7b360008054906101000a900473ffffffffffffffffffffffffffffffffffffffff167fffffffffffffffffffffffffffffffffffffffffffffffffffffffffffffffff6040518363ffffffff1660e01b815260040162000471929190620006b6565b602060405180830381600087803b1580156200048c57600080fd5b505af1158015620004a1573d6000803e3d6000fd5b505050506040513d601f19601f82011682018060405250810190620004c791906200058f565b5050505050505050505062000889565b600081519050620004e881620007b9565b92915050565b600081519050620004ff81620007d3565b92915050565b6000815190506200051681620007ed565b92915050565b6000815190506200052d8162000807565b92915050565b600081519050620005448162000821565b92915050565b6000815190506200055b816200083b565b92915050565b600081519050620005728162000855565b92915050565b60008151905062000589816200086f565b92915050565b600060208284031215620005a257600080fd5b6000620005b284828501620004d7565b91505092915050565b60008060008060008060008060006101208a8c031215620005db57600080fd5b6000620005eb8c828d0162000505565b9950506020620005fe8c828d0162000561565b9850506040620006118c828d016200054a565b9750506060620006248c828d0162000533565b9650506080620006378c828d01620004ee565b95505060a06200064a8c828d016200051c565b94505060c06200065d8c828d016200051c565b93505060e0620006708c828d0162000578565b925050610100620006848c828d0162000578565b9150509295985092959850929598565b6200069f81620006e3565b82525050565b620006b081620007af565b82525050565b6000604082019050620006cd600083018562000694565b620006dc6020830184620006a5565b9392505050565b6000620006f0826200078f565b9050919050565b60008115159050919050565b60006200071082620006e3565b9050919050565b60006200072482620006e3565b9050919050565b60006200073882620006e3565b9050919050565b60006200074c82620006e3565b9050919050565b60006200076082620006e3565b9050919050565b60006200077482620006e3565b9050919050565b60006200078882620006e3565b9050919050565b600073ffffffffffffffffffffffffffffffffffffffff82169050919050565b6000819050919050565b620007c481620006f7565b8114620007d057600080fd5b50565b620007de8162000703565b8114620007ea57600080fd5b50565b620007f88162000717565b81146200080457600080fd5b50565b62000812816200072b565b81146200081e57600080fd5b50565b6200082c816200073f565b81146200083857600080fd5b50565b620008468162000753565b81146200085257600080fd5b50565b620008608162000767565b81146200086c57600080fd5b50565b6200087a816200077b565b81146200088657600080fd5b50565b60805160601c60a05160601c60c05160601c60e05160601c6101005160601c6101205160601c6101405160601c6101605160601c6101805160601c6130c8620009cf600039600081816103f901526114f401526000818161036701528181610b4d01528181611ba001528181611c420152611cee0152600081816102fb015281816111a50152818161169001526119b8015260008181610343015281816112550152818161134601528181611744015281816117f8015281816118e60152611aaa015260005050600081816118aa015261197c01526000818161086801528181610a6801528181610c6d01528181610ec901526111810152600081816103d50152818161057a0152818161077701528181610a2b01528181610da901528181611449015261158a01526000818161031f015281816104ab015261068901526130c86000f3fe6080604052600436106100c65760003560e01c8063669701d81161007f578063d5b9979711610059578063d5b9979714610253578063d7b12a2a1461027c578063d900153c146102a5578063e7892cce146102ce576100cd565b8063669701d8146101d457806377553ad4146101ff578063ab033ea91461022a576100cd565b8063113c8dca146100d2578063213ef7f7146100fd57806333e1567f146101285780633d83908a1461015357806347d723a21461017e5780635aa6e675146101a9576100cd565b366100cd57005b600080fd5b3480156100de57600080fd5b506100e76102f9565b6040516100f491906126f4565b60405180910390f35b34801561010957600080fd5b5061011261031d565b60405161011f91906126a3565b60405180910390f35b34801561013457600080fd5b5061013d610341565b60405161014a91906126f4565b60405180910390f35b34801561015f57600080fd5b50610168610365565b60405161017591906126d9565b60405180910390f35b34801561018a57600080fd5b50610193610389565b6040516101a091906126be565b60405180910390f35b3480156101b557600080fd5b506101be6103af565b6040516101cb91906124b5565b60405180910390f35b3480156101e057600080fd5b506101e96103d3565b6040516101f691906126a3565b60405180910390f35b34801561020b57600080fd5b506102146103f7565b604051610221919061266d565b60405180910390f35b34801561023657600080fd5b50610251600480360381019061024c9190611f9b565b61041b565b005b34801561025f57600080fd5b5061027a6004803603810190610275919061209e565b610866565b005b34801561028857600080fd5b506102a3600480360381019061029e9190612062565b610b49565b005b3480156102b157600080fd5b506102cc60048036038101906102c79190612147565b6110ad565b005b3480156102da57600080fd5b506102e361117f565b6040516102f09190612688565b60405180910390f35b7f000000000000000000000000000000000000000000000000000000000000000081565b7f000000000000000000000000000000000000000000000000000000000000000081565b7f000000000000000000000000000000000000000000000000000000000000000081565b7f000000000000000000000000000000000000000000000000000000000000000081565b600160009054906101000a900473ffffffffffffffffffffffffffffffffffffffff1681565b60008054906101000a900473ffffffffffffffffffffffffffffffffffffffff1681565b7f000000000000000000000000000000000000000000000000000000000000000081565b7f000000000000000000000000000000000000000000000000000000000000000081565b60008054906101000a900473ffffffffffffffffffffffffffffffffffffffff1673ffffffffffffffffffffffffffffffffffffffff163373ffffffffffffffffffffffffffffffffffffffff16146104a9576040517f08c379a00000000000000000000000000000000000000000000000000000000081526004016104a09061278f565b60405180910390fd5b7f000000000000000000000000000000000000000000000000000000000000000073ffffffffffffffffffffffffffffffffffffffff1663095ea7b360008054906101000a900473ffffffffffffffffffffffffffffffffffffffff1660006040518363ffffffff1660e01b8152600401610525929190612530565b602060405180830381600087803b15801561053f57600080fd5b505af1158015610553573d6000803e3d6000fd5b505050506040513d601f19601f82011682018060405250810190610577919061211e565b507f000000000000000000000000000000000000000000000000000000000000000073ffffffffffffffffffffffffffffffffffffffff1663095ea7b360008054906101000a900473ffffffffffffffffffffffffffffffffffffffff1660006040518363ffffffff1660e01b81526004016105f4929190612530565b602060405180830381600087803b15801561060e57600080fd5b505af1158015610622573d6000803e3d6000fd5b505050506040513d601f19601f82011682018060405250810190610646919061211e565b50806000806101000a81548173ffffffffffffffffffffffffffffffffffffffff021916908373ffffffffffffffffffffffffffffffffffffffff1602179055507f000000000000000000000000000000000000000000000000000000000000000073ffffffffffffffffffffffffffffffffffffffff1663095ea7b360008054906101000a900473ffffffffffffffffffffffffffffffffffffffff167fffffffffffffffffffffffffffffffffffffffffffffffffffffffffffffffff6040518363ffffffff1660e01b8152600401610722929190612582565b602060405180830381600087803b15801561073c57600080fd5b505af1158015610750573d6000803e3d6000fd5b505050506040513d601f19601f82011682018060405250810190610774919061211e565b507f000000000000000000000000000000000000000000000000000000000000000073ffffffffffffffffffffffffffffffffffffffff1663095ea7b360008054906101000a900473ffffffffffffffffffffffffffffffffffffffff167fffffffffffffffffffffffffffffffffffffffffffffffffffffffffffffffff6040518363ffffffff1660e01b8152600401610810929190612582565b602060405180830381600087803b15801561082a57600080fd5b505af115801561083e573d6000803e3d6000fd5b505050506040513d601f19601f82011682018060405250810190610862919061211e565b5050565b7f000000000000000000000000000000000000000000000000000000000000000073ffffffffffffffffffffffffffffffffffffffff163373ffffffffffffffffffffffffffffffffffffffff16146108f4576040517f08c379a00000000000000000000000000000000000000000000000000000000081526004016108eb9061280f565b60405180910390fd5b3073ffffffffffffffffffffffffffffffffffffffff168573ffffffffffffffffffffffffffffffffffffffff1614610962576040517f08c379a00000000000000000000000000000000000000000000000000000000081526004016109599061282f565b60405180910390fd5b6000806000806000806000888881019061097c9190611fc4565b9650965096509650965096509650848b146109cc576040517f08c379a00000000000000000000000000000000000000000000000000000000081526004016109c39061276f565b60405180910390fd5b60008a14610a0f576040517f08c379a0000000000000000000000000000000000000000000000000000000008152600401610a06906127af565b60405180910390fd5b610a1a8786886111a3565b610a2787858585856113f6565b60007f000000000000000000000000000000000000000000000000000000000000000073ffffffffffffffffffffffffffffffffffffffff166323b872dd897f0000000000000000000000000000000000000000000000000000000000000000876040518463ffffffff1660e01b8152600401610aa6939291906124f9565b602060405180830381600087803b158015610ac057600080fd5b505af1158015610ad4573d6000803e3d6000fd5b505050506040513d601f19601f82011682018060405250810190610af8919061211e565b905080610b3a576040517f08c379a0000000000000000000000000000000000000000000000000000000008152600401610b319061274f565b60405180910390fd5b50505050505050505050505050565b60007f000000000000000000000000000000000000000000000000000000000000000073ffffffffffffffffffffffffffffffffffffffff166321e37801336040518263ffffffff1660e01b8152600401610ba491906124b5565b60206040518083038186803b158015610bbc57600080fd5b505afa158015610bd0573d6000803e3d6000fd5b505050506040513d601f19601f82011682018060405250810190610bf49190612170565b90506001811415610c3a576040517f08c379a0000000000000000000000000000000000000000000000000000000008152600401610c319061272f565b60405180910390fd5b6000610c4461167e565b90506000610c5182611b9b565b905060008260200151905060008290505b600115610da65760007f000000000000000000000000000000000000000000000000000000000000000073ffffffffffffffffffffffffffffffffffffffff166366410a2130846040518363ffffffff1660e01b8152600401610cc6929190612582565b60806040518083038186803b158015610cde57600080fd5b505afa158015610cf2573d6000803e3d6000fd5b505050506040513d601f19601f82011682018060405250810190610d169190612199565b5050509050838110610d285750610da6565b6103e86103e983610d399190612a2f565b610d4391906129fe565b9150606e84610d529190612a2f565b606483610d5f9190612a2f565b1115610da0576040517f08c379a0000000000000000000000000000000000000000000000000000000008152600401610d979061284f565b60405180910390fd5b50610c62565b807f000000000000000000000000000000000000000000000000000000000000000073ffffffffffffffffffffffffffffffffffffffff1663dd62ed3e33306040518363ffffffff1660e01b8152600401610e029291906124d0565b60206040518083038186803b158015610e1a57600080fd5b505afa158015610e2e573d6000803e3d6000fd5b505050506040513d601f19601f82011682018060405250810190610e529190612170565b1015610e93576040517f08c379a0000000000000000000000000000000000000000000000000000000008152600401610e8a906127ef565b60405180910390fd5b60003385600001518585858c8c604051602001610eb697969594939291906125fe565b60405160208183030381529060405290507f000000000000000000000000000000000000000000000000000000000000000073ffffffffffffffffffffffffffffffffffffffff1663d0a494e485600030856040518563ffffffff1660e01b8152600401610f2794939291906128ea565b600060405180830381600087803b158015610f4157600080fd5b505af1158015610f55573d6000803e3d6000fd5b50505050600073ffffffffffffffffffffffffffffffffffffffff16600160009054906101000a900473ffffffffffffffffffffffffffffffffffffffff1673ffffffffffffffffffffffffffffffffffffffff161461104757600160009054906101000a900473ffffffffffffffffffffffffffffffffffffffff1673ffffffffffffffffffffffffffffffffffffffff166321670f2233670de0b6b3a76400006040518363ffffffff1660e01b8152600401611014929190612559565b600060405180830381600087803b15801561102e57600080fd5b505af1158015611042573d6000803e3d6000fd5b505050505b3373ffffffffffffffffffffffffffffffffffffffff167fc8102fa5c0a66c20caa3ebb502aecfcc6e0ea963896d5a14c1bd8c10c456c55386600001518760400151868660405161109b9493929190612936565b60405180910390a25050505050505050565b60008054906101000a900473ffffffffffffffffffffffffffffffffffffffff1673ffffffffffffffffffffffffffffffffffffffff163373ffffffffffffffffffffffffffffffffffffffff161461113b576040517f08c379a00000000000000000000000000000000000000000000000000000000081526004016111329061278f565b60405180910390fd5b80600160006101000a81548173ffffffffffffffffffffffffffffffffffffffff021916908373ffffffffffffffffffffffffffffffffffffffff16021790555050565b7f000000000000000000000000000000000000000000000000000000000000000081565b7f000000000000000000000000000000000000000000000000000000000000000073ffffffffffffffffffffffffffffffffffffffff16632608f81884846040518363ffffffff1660e01b81526004016111fe929190612582565b602060405180830381600087803b15801561121857600080fd5b505af115801561122c573d6000803e3d6000fd5b505050506040513d601f19601f820116820180604052508101906112509190612170565b5060007f000000000000000000000000000000000000000000000000000000000000000073ffffffffffffffffffffffffffffffffffffffff166323b872dd8530856040518463ffffffff1660e01b81526004016112b0939291906124f9565b602060405180830381600087803b1580156112ca57600080fd5b505af11580156112de573d6000803e3d6000fd5b505050506040513d601f19601f82011682018060405250810190611302919061211e565b905080611344576040517f08c379a000000000000000000000000000000000000000000000000000000000815260040161133b906128af565b60405180910390fd5b7f000000000000000000000000000000000000000000000000000000000000000073ffffffffffffffffffffffffffffffffffffffff1663db006a75836040518263ffffffff1660e01b815260040161139d91906128cf565b602060405180830381600087803b1580156113b757600080fd5b505af11580156113cb573d6000803e3d6000fd5b505050506040513d601f19601f820116820180604052508101906113ef9190612170565b5050505050565b83471015611439576040517f08c379a00000000000000000000000000000000000000000000000000000000081526004016114309061270f565b60405180910390fd5b6000666a94d74f430000905060007f000000000000000000000000000000000000000000000000000000000000000073ffffffffffffffffffffffffffffffffffffffff166370a08231886040518263ffffffff1660e01b81526004016114a091906124b5565b60206040518083038186803b1580156114b857600080fd5b505afa1580156114cc573d6000803e3d6000fd5b505050506040513d601f19601f820116820180604052508101906114f09190612170565b90507f000000000000000000000000000000000000000000000000000000000000000073ffffffffffffffffffffffffffffffffffffffff1663e8bf03cb8789858989896040518763ffffffff1660e01b81526004016115549594939291906125ab565b6000604051808303818588803b15801561156d57600080fd5b505af1158015611581573d6000803e3d6000fd5b505050505060007f000000000000000000000000000000000000000000000000000000000000000073ffffffffffffffffffffffffffffffffffffffff166370a08231896040518263ffffffff1660e01b81526004016115e191906124b5565b60206040518083038186803b1580156115f957600080fd5b505afa15801561160d573d6000803e3d6000fd5b505050506040513d601f19601f820116820180604052508101906116319190612170565b90508582826116409190612a89565b14611674577f4e487b7100000000000000000000000000000000000000000000000000000000600052600160045260246000fd5b5050505050505050565b611686611e8f565b61168e611e8f565b7f000000000000000000000000000000000000000000000000000000000000000073ffffffffffffffffffffffffffffffffffffffff166317bfdfbc336040518263ffffffff1660e01b81526004016116e791906124b5565b602060405180830381600087803b15801561170157600080fd5b505af1158015611715573d6000803e3d6000fd5b505050506040513d601f19601f820116820180604052508101906117399190612170565b8160400181815250507f000000000000000000000000000000000000000000000000000000000000000073ffffffffffffffffffffffffffffffffffffffff16633af9e669336040518263ffffffff1660e01b815260040161179b91906124b5565b602060405180830381600087803b1580156117b557600080fd5b505af11580156117c9573d6000803e3d6000fd5b505050506040513d601f19601f820116820180604052508101906117ed9190612170565b8160200181815250507f000000000000000000000000000000000000000000000000000000000000000073ffffffffffffffffffffffffffffffffffffffff166370a08231336040518263ffffffff1660e01b815260040161184f91906124b5565b60206040518083038186803b15801561186757600080fd5b505afa15801561187b573d6000803e3d6000fd5b505050506040513d601f19601f8201168201806040525081019061189f9190612170565b8160000181815250507f000000000000000000000000000000000000000000000000000000000000000073ffffffffffffffffffffffffffffffffffffffff1663fc57d4df7f00000000000000000000000000000000000000000000000000000000000000006040518263ffffffff1660e01b815260040161192191906126f4565b60206040518083038186803b15801561193957600080fd5b505afa15801561194d573d6000803e3d6000fd5b505050506040513d601f19601f820116820180604052508101906119719190612170565b8160600181815250507f000000000000000000000000000000000000000000000000000000000000000073ffffffffffffffffffffffffffffffffffffffff1663fc57d4df7f00000000000000000000000000000000000000000000000000000000000000006040518263ffffffff1660e01b81526004016119f391906126f4565b60206040518083038186803b158015611a0b57600080fd5b505afa158015611a1f573d6000803e3d6000fd5b505050506040513d601f19601f82011682018060405250810190611a439190612170565b81608001818152505060008160000151118015611a64575060008160400151115b611aa3576040517f08c379a0000000000000000000000000000000000000000000000000000000008152600401611a9a906127cf565b60405180910390fd5b80600001517f000000000000000000000000000000000000000000000000000000000000000073ffffffffffffffffffffffffffffffffffffffff1663dd62ed3e33306040518363ffffffff1660e01b8152600401611b039291906124d0565b60206040518083038186803b158015611b1b57600080fd5b505afa158015611b2f573d6000803e3d6000fd5b505050506040513d601f19601f82011682018060405250810190611b539190612170565b1015611b94576040517f08c379a0000000000000000000000000000000000000000000000000000000008152600401611b8b9061286f565b60405180910390fd5b8091505090565b6000807f000000000000000000000000000000000000000000000000000000000000000073ffffffffffffffffffffffffffffffffffffffff16632e86bbd86040518163ffffffff1660e01b815260040160206040518083038186803b158015611c0457600080fd5b505afa158015611c18573d6000803e3d6000fd5b505050506040513d601f19601f82011682018060405250810190611c3c9190612170565b905060007f000000000000000000000000000000000000000000000000000000000000000073ffffffffffffffffffffffffffffffffffffffff16631bf435556040518163ffffffff1660e01b815260040160206040518083038186803b158015611ca657600080fd5b505afa158015611cba573d6000803e3d6000fd5b505050506040513d601f19601f82011682018060405250810190611cde9190612170565b905060006001662386f26fc100007f000000000000000000000000000000000000000000000000000000000000000073ffffffffffffffffffffffffffffffffffffffff1663794e57246040518163ffffffff1660e01b815260040160206040518083038186803b158015611d5257600080fd5b505afa158015611d66573d6000803e3d6000fd5b505050506040513d601f19601f82011682018060405250810190611d8a9190612170565b611d9491906129fe565b611d9e91906129a8565b90508185604001511015611de7576040517f08c379a0000000000000000000000000000000000000000000000000000000008152600401611dde9061288f565b60405180910390fd5b600085604001519050600086606001518760200151611e069190612a2f565b90508287608001518684611e1a91906129a8565b611e249190612a2f565b611e2e9190612a2f565b606482611e3b9190612a2f565b11611e76578460968860800151611e529190612a2f565b606483611e5f9190612a2f565b611e6991906129fe565b611e739190612a89565b91505b83821015611e82578391505b8195505050505050919050565b6040518060a0016040528060008152602001600081526020016000815260200160008152602001600081525090565b600081359050611ecd8161300f565b92915050565b600081359050611ee281613026565b92915050565b600081519050611ef78161303d565b92915050565b60008083601f840112611f0f57600080fd5b8235905067ffffffffffffffff811115611f2857600080fd5b602083019150836001820283011115611f4057600080fd5b9250929050565b600081359050611f5681613054565b92915050565b600081519050611f6b8161306b565b92915050565b600081359050611f808161307b565b92915050565b600081519050611f958161307b565b92915050565b600060208284031215611fad57600080fd5b6000611fbb84828501611ebe565b91505092915050565b600080600080600080600060e0888a031215611fdf57600080fd5b6000611fed8a828b01611ed3565b9750506020611ffe8a828b01611f71565b965050604061200f8a828b01611f71565b95505060606120208a828b01611f71565b94505060806120318a828b01611f71565b93505060a06120428a828b01611ed3565b92505060c06120538a828b01611ed3565b91505092959891949750929550565b6000806040838503121561207557600080fd5b600061208385828601611ebe565b925050602061209485828601611ebe565b9150509250929050565b6000806000806000608086880312156120b657600080fd5b60006120c488828901611ebe565b95505060206120d588828901611f71565b94505060406120e688828901611f71565b935050606086013567ffffffffffffffff81111561210357600080fd5b61210f88828901611efd565b92509250509295509295909350565b60006020828403121561213057600080fd5b600061213e84828501611ee8565b91505092915050565b60006020828403121561215957600080fd5b600061216784828501611f47565b91505092915050565b60006020828403121561218257600080fd5b600061219084828501611f86565b91505092915050565b600080600080608085870312156121af57600080fd5b60006121bd87828801611f86565b94505060206121ce87828801611f86565b93505060406121df87828801611f5c565b92505060606121f087828801611f86565b91505092959194509250565b61220581612abd565b82525050565b60006122168261297b565b6122208185612986565b9350612230818560208601612c25565b61223981612cb6565b840191505092915050565b61224d81612b29565b82525050565b61225c81612b4d565b82525050565b61226b81612b71565b82525050565b61227a81612b95565b82525050565b61228981612bb9565b82525050565b61229881612bdd565b82525050565b6122a781612c01565b82525050565b6122b681612c13565b82525050565b60006122c9601983612997565b91506122d482612cc7565b602082019050919050565b60006122ec601583612997565b91506122f782612cf0565b602082019050919050565b600061230f602d83612997565b915061231a82612d19565b604082019050919050565b6000612332602183612997565b915061233d82612d68565b604082019050919050565b6000612355600b83612997565b915061236082612db7565b602082019050919050565b6000612378601d83612997565b915061238382612de0565b602082019050919050565b600061239b601883612997565b91506123a682612e09565b602082019050919050565b60006123be601c83612997565b91506123c982612e32565b602082019050919050565b60006123e1602183612997565b91506123ec82612e5b565b604082019050919050565b6000612404602583612997565b915061240f82612eaa565b604082019050919050565b6000612427602283612997565b915061243282612ef9565b604082019050919050565b600061244a601c83612997565b915061245582612f48565b602082019050919050565b600061246d602e83612997565b915061247882612f71565b604082019050919050565b6000612490602683612997565b915061249b82612fc0565b604082019050919050565b6124af81612b1f565b82525050565b60006020820190506124ca60008301846121fc565b92915050565b60006040820190506124e560008301856121fc565b6124f260208301846121fc565b9392505050565b600060608201905061250e60008301866121fc565b61251b60208301856121fc565b61252860408301846124a6565b949350505050565b600060408201905061254560008301856121fc565b612552602083018461229e565b9392505050565b600060408201905061256e60008301856121fc565b61257b60208301846122ad565b9392505050565b600060408201905061259760008301856121fc565b6125a460208301846124a6565b9392505050565b600060a0820190506125c060008301886121fc565b6125cd60208301876124a6565b6125da60408301866124a6565b6125e760608301856121fc565b6125f460808301846121fc565b9695505050505050565b600060e082019050612613600083018a6121fc565b61262060208301896124a6565b61262d60408301886124a6565b61263a60608301876124a6565b61264760808301866124a6565b61265460a08301856121fc565b61266160c08301846121fc565b98975050505050505050565b60006020820190506126826000830184612244565b92915050565b600060208201905061269d6000830184612253565b92915050565b60006020820190506126b86000830184612262565b92915050565b60006020820190506126d36000830184612271565b92915050565b60006020820190506126ee6000830184612280565b92915050565b6000602082019050612709600083018461228f565b92915050565b60006020820190508181036000830152612728816122bc565b9050919050565b60006020820190508181036000830152612748816122df565b9050919050565b6000602082019050818103600083015261276881612302565b9050919050565b6000602082019050818103600083015261278881612325565b9050919050565b600060208201905081810360008301526127a881612348565b9050919050565b600060208201905081810360008301526127c88161236b565b9050919050565b600060208201905081810360008301526127e88161238e565b9050919050565b60006020820190508181036000830152612808816123b1565b9050919050565b60006020820190508181036000830152612828816123d4565b9050919050565b60006020820190508181036000830152612848816123f7565b9050919050565b600060208201905081810360008301526128688161241a565b9050919050565b600060208201905081810360008301526128888161243d565b9050919050565b600060208201905081810360008301526128a881612460565b9050919050565b600060208201905081810360008301526128c881612483565b9050919050565b60006020820190506128e460008301846124a6565b92915050565b60006080820190506128ff60008301876124a6565b61290c602083018661229e565b61291960408301856121fc565b818103606083015261292b818461220b565b905095945050505050565b600060808201905061294b60008301876124a6565b61295860208301866124a6565b61296560408301856124a6565b61297260608301846124a6565b95945050505050565b600081519050919050565b600082825260208201905092915050565b600082825260208201905092915050565b60006129b382612b1f565b91506129be83612b1f565b9250827fffffffffffffffffffffffffffffffffffffffffffffffffffffffffffffffff038211156129f3576129f2612c58565b5b828201905092915050565b6000612a0982612b1f565b9150612a1483612b1f565b925082612a2457612a23612c87565b5b828204905092915050565b6000612a3a82612b1f565b9150612a4583612b1f565b9250817fffffffffffffffffffffffffffffffffffffffffffffffffffffffffffffffff0483118215151615612a7e57612a7d612c58565b5b828202905092915050565b6000612a9482612b1f565b9150612a9f83612b1f565b925082821015612ab257612ab1612c58565b5b828203905092915050565b6000612ac882612aff565b9050919050565b6000612ada82612aff565b9050919050565b60008115159050919050565b6000612af882612abd565b9050919050565b600073ffffffffffffffffffffffffffffffffffffffff82169050919050565b6000819050919050565b6000612b3482612b3b565b9050919050565b6000612b4682612aff565b9050919050565b6000612b5882612b5f565b9050919050565b6000612b6a82612aff565b9050919050565b6000612b7c82612b83565b9050919050565b6000612b8e82612aff565b9050919050565b6000612ba082612ba7565b9050919050565b6000612bb282612aff565b9050919050565b6000612bc482612bcb565b9050919050565b6000612bd682612aff565b9050919050565b6000612be882612bef565b9050919050565b6000612bfa82612aff565b9050919050565b6000612c0c82612b1f565b9050919050565b6000612c1e82612b1f565b9050919050565b60005b83811015612c43578082015181840152602081019050612c28565b83811115612c52576000848401525b50505050565b7f4e487b7100000000000000000000000000000000000000000000000000000000600052601160045260246000fd5b7f4e487b7100000000000000000000000000000000000000000000000000000000600052601260045260246000fd5b6000601f19601f8301169050919050565b7f424e422062616c616e6365206973206e6f7420656e6f75676800000000000000600082015250565b7f50696767792074726f7665206973206163746976650000000000000000000000600082015250565b7f6661696c6564207472616e7366657220746f6b656e5055534420746f20444f4460008201527f4f20537461626c6520706f6f6c00000000000000000000000000000000000000602082015250565b7f62617365416d6f756e74206e6f7420657175616c20746f20627573645265706160008201527f7900000000000000000000000000000000000000000000000000000000000000602082015250565b7f21676f7665726e616e6365000000000000000000000000000000000000000000600082015250565b7f71756f7465416d6f756e74206e6f7420657175616c20746f207a65726f000000600082015250565b7f6e6f20424e42206f72204255534420706f736974696f6e730000000000000000600082015250565b7f5055534420616c6c6f77616e6365206973206e6f7420656e6f75676800000000600082015250565b7f6d73672e73656e646572206973206e6f7420444f444f20537461626c65506f6f60008201527f6c00000000000000000000000000000000000000000000000000000000000000602082015250565b7f666c6173686c6f616e2073656e646572206973206e6f74207468697320636f6e60008201527f7472616374000000000000000000000000000000000000000000000000000000602082015250565b7f746f6f206d75636820505553442f4255534420736c69707061676520283e302e60008201527f3129000000000000000000000000000000000000000000000000000000000000602082015250565b7f76424e4220616c6c6f77616e6365206973206e6f7420656e6f75676800000000600082015250565b7f62757364426f72726f7742616c616e6365206d7573742062652067726561746560008201527f72207468616e206d696e696d756d000000000000000000000000000000000000602082015250565b7f6661696c6564207472616e736665722076424e4220746f205661756c744d696760008201527f726174696f6e0000000000000000000000000000000000000000000000000000602082015250565b61301881612abd565b811461302357600080fd5b50565b61302f81612acf565b811461303a57600080fd5b50565b61304681612ae1565b811461305157600080fd5b50565b61305d81612aed565b811461306857600080fd5b50565b6003811061307857600080fd5b50565b61308481612b1f565b811461308f57600080fd5b5056fea26469706673582212200b0c3126dc5f67b371b17b90157de68d8e6422aa36354a16e89b1c2f49e176c864736f6c63430008040033",
  "devdoc": {
    "kind": "dev",
    "methods": {},
    "version": 1
  },
  "userdoc": {
    "kind": "user",
    "methods": {
      "DSPFlashLoanCall(address,uint256,uint256,bytes)": {
        "notice": "DODO FlashLoan  1.  msg.sender  dodoStablePool     data , ,  2.  BUSD  PUSD ,      BUSD  PUSD,  3. , _openPiggyTrove  PUSD  pusdDebt"
      }
    },
    "version": 1
  },
  "storageLayout": {
    "storage": [
      {
        "astId": 93,
        "contract": "contracts/VaultMigration.sol:VaultMigration",
        "label": "governance",
        "offset": 0,
        "slot": "0",
        "type": "t_address"
      },
      {
        "astId": 134,
        "contract": "contracts/VaultMigration.sol:VaultMigration",
        "label": "piggyReward",
        "offset": 0,
        "slot": "1",
        "type": "t_contract(IPiggyReward)1164"
      }
    ],
    "types": {
      "t_address": {
        "encoding": "inplace",
        "label": "address",
        "numberOfBytes": "20"
      },
      "t_contract(IPiggyReward)1164": {
        "encoding": "inplace",
        "label": "contract IPiggyReward",
        "numberOfBytes": "20"
      }
    }
  }
}